:020000040000FA
:040000000DEF00F010
:04000800CBEF17F033
:06001800FF0042EF17F0AB
:10260000004D6561737572656420496E7075742044
:102610004672657175656E63793A2025756B487AE7
:102620000A0D004D6561737572656420496E7075A1
:1026300074204672657175656E63793A2025754818
:102640007A0A0D004F70656E2057697265204465E7
:0B2650007465637465642E0A0D0000C1
:10265C0065AF669365BF04D0655106E1640504E27D
:10266C00316A010E306E04D064C530F565C531F5A4
:10267C0062C532F563C533F520C534F521C535F592
:10268C0022C536F523C537F524C538F525C539F5EA
:10269C0026C53AF527C53BF53D6A1F0E3C6E896B86
:1026AC0068D03C06D8A03D066A0E3C24D96E050EB7
:1026BC003D20DA6E34C501F535C502F536C503F596
:1026CC0037C504F538C505F539C506F53AC507F51E
:1026DC003BC508F50A0E096E0A6A0B6A0C6A0D6A8C
:1026EC000E6A0F6A106ADEEC14F001C528F502C5FB
:1026FC0029F503C52AF504C52BF505C52CF506C52A
:10270C002DF507C52EF508C52FF52850300FDF6EB7
:10271C003006D8A031063206D8A0330634C501F5F0
:10272C0035C502F536C503F537C504F538C505F5CD
:10273C0039C506F53AC507F53BC508F50A0E096E0D
:10274C000A6A0B6A0C6A0D6A0E6A0F6A106A77ECD9
:10275C0014F001C534F502C535F503C536F504C5CD
:10276C0037F505C538F506C539F507C53AF508C579
:10277C003BF53C503D1018E03450351036103710F6
:10278C00381039103A103B108CE131BE04D0315066
:10279C0088E1300486E233BE07D0335002E13204C4
:1027AC0003E3050166B37DD71EC513F51FC514F5EC
:1027BC006A0E3C24156E050E3D20166E32C517F5BB
:1027CC0033C518F5C9EC15F013C51EF514C51FF566
:1027DC00120072D878D8250A65E16ED8DF2A050177
:1027EC00626B636B666B676B6469656965D86BD884
:1027FC00750A43E161D8DF2A610008F5D9F461005C
:10280C000CF5DAF461007CF344F5020EDE2661006F
:10281C007CF345F5000EDD22610010F5D9F4610062
:10282C0014F5DAF4610078F346F5610074F347F5BA
:10283C0046C548F547C549F54A6A4B6A4C6A4D6A24
:10284C004E6A4F6A3EC51EF53FC51FF548C520F5BB
:10285C0049C521F54AC522F54BC523F54CC524F5D0
:10286C004DC525F54EC526F54FC527F52EEC13F0B5
:10287C001EC53EF51FC53FF512001ED824D8250AEB
:10288C000CE11AD8DF2A046A250E036E25D80BEC4E
:10289C0016F03F6A010E3E6E010C0ED8DF2A3E6A1E
:1028AC003F6A120009D80FD8036E046A15D80BECD6
:1028BC0016F002D8DF2AEDD7610000F5D9F46100DB
:1028CC0004F5DAF41200DFC4F6F4260EF76E000EEF
:1028DC00F86E0800F55012003EC505F53FC506F52B
:1028EC001200116A126A136A146A156A166A176A58
:1028FC00186A09500A100B100C100D100E100F1046
:10290C00101045E0010E196E0AD0D89009360A361F
:10291C000B360C360D360E360F361036192A10AE15
:10292C00F4D7D890113612361336143615361636AF
:10293C00173618360950015C0A5002580B500358D0
:10294C000C5004580D5005580E5006580F5007588F
:10295C001050085811E30950015E0A50025A0B50EE
:10296C00035A0C50045A0D50055A0E50065A0F506B
:10297C00075A1050085A1180D89010320F320E326C
:10298C000D320C320B320A320932192ECAD711C54C
:10299C0001F512C502F513C503F514C504F515C5EB
:1029AC0005F516C506F517C507F518C508F5120087
:1029BC0009500A100B100C100D100E100F101010E7
:1029CC003BE0010E116E0AD0D89009360A360B3650
:1029DC000C360D360E360F361036112A10AEF4D7D3
:1029EC000950015C0A5002580B5003580C50045803
:1029FC000D5005580E5006580F50075810500858D7
:102A0C0010E30950015E0A50025A0B50035A0C5045
:102A1C00045A0D50055A0E50065A0F50075A1050B2
:102A2C00085AD89010320F320E320D320C320B3253
:102A3C000A320932112ED4D701C501F502C502F5AF
:102A4C0003C503F504C504F505C505F506C506F56E
:102A5C0007C507F508C508F51200A8EC16F0000E1E
:102A6C0020EC17F00501686BB80E016E2F0E026E8C
:102A7C00000E036EBEEC17F0D68ED9EC17F00501E4
:102A8C006851FDE0686BAEEC17F0045002E10304F2
:102A9C0017E3AEEC17F00150056E02C506F503C541
:102AAC0007F5030E096EE80E086EDBEC16F05F6E90
:102ABC00010E566E5FC557F5586A71EC17F0DFD7EB
:102ACC00AEEC17F004500310021003E1070E015C8A
:102ADC000FE3230E566EAEEC17F001C557F502C589
:102AEC0058F503C559F504C55AF571EC17F0C7D75D
:102AFC00440E566E71EC17F0C2D7C26AC16ABE6A38
:102B0C00C36ABF6AC06A070ECA6EFE0ECB6E3F0E5A
:102B1C00C66EC768C868C96804011869EE0E106FE4
:102B2C000869070E206FFD0E286FDF0E006F196B02
:102B3C00296B216B096B016B116B0201896B886B23
:102B4C00876B866B0401226B2A6B026B0A6B126B10
:102B5C001A6B03690B6913691B69070E236F2B69C9
:102B6C0004690C6914691C690F0E246F2C69050E1D
:102B7C000201616F100E596F140E5A6F200E296FDF
:102B8C00290E726F290C050166A103D035D8C2EC51
:102B9C0016F018BE05D017C51CF518C51DF502D0CA
:102BAC001C6A1D6A1A6A1B6A0BD0046A200E036E1B
:102BBC0013C505F514C506F50BEC16F01A4A1B2ABD
:102BCC001C501A5C1B50800A196E1D50800A195833
:102BDC00ECE3050166B103D00FD8C2EC16F015C5B5
:102BEC0001F516C502F5F4EC16F01C500124136E19
:102BFC001D500220146E120015C50CF516C50DF5EE
:102C0C0013C50EF514C50FF512000550061003E0A0
:102C1C000550061003E10350D1EF17F01ED8DE501B
:102C2C00DE1011E01AD810EE02F00550E126065025
:102C3C00E222DE50E65CE650800A0B6EDE50800A23
:102C4C000B58D8B0120020EE02F00550D9260650D1
:102C5C00DA22DE2A000EDD22000C20EE04F00550F4
:102C6C00D9260650DA22120052C555F50501606BC3
:102C7C00616B13D050C53EF551C53FF5550E406EF6
:102C8C00050E416E53C542F554C543F5EFEC13F0F8
:102C9C003E50050160273F506123610054F5F6F466
:102CAC00260EF76E000EF86E0800F550E3E160C5D5
:102CBC0050F561C551F512000201A56BA66BA76B0F
:102CCC00A86BA96BAA6BA00EAB6F800EAC6FAD6B33
:102CDC00220EAE6FAF6BB06BB16BB26BB36B000E01
:102CEC00016A026A036AE2EC17F0000E016A026ADA
:102CFC00036AE1EC17F0000E016A026A036AE3EC66
:102D0C0017F00501696B12000001E86B2E0EF96FCC
:102D1C00030EFA6FFB6BF16B7D0EF06FFD6BF86BB6
:102D2C00010EF76FEF6BEE6F1B0EFF6FFE6BB09A21
:102D3C00B098B09EB09CA09AA098A09EA09CC00EEB
:102D4C00FC6FC00CDFEC17F09AEC17F083EC15F06D
:102D5C00A4EC17F062EC17F08AEC16F052EC17F0BA
:102D6C008DEC17F07FEC17F0C5EC17F00AEC17F0B0
:102D7C0062EC16F0D5EF17F0116A126A0BD010C581
:102D8C0003F5046A0EC505F50FC506F50BEC16F038
:102D9C00114A122A11500C24D96E12500D20DA6EE1
:102DAC00DF50106E1050EBE112000D6A07D00FD8F7
:102DBC00055E0B50065A0C50075A0D2A08D8055CB4
:102DCC000B5006580C500758F2E20D50120008C573
:102DDC000AF509C50BF50C6A0A50120001C503F57A
:102DEC0002C504F502D0014A022A610004F4D9F4A8
:102DFC00610008F4DAF4DF50F6E10350015C016E77
:102E0C0004500258026E1200040E0301266F256B4B
:102E1C00276BF10E236F226BB196A186C80E016E43
:102E2C002F0E026E000E036EBEEC17F0F00E0301B7
:102E3C00246FF00C016E550E0001B46FAA0EB46F26
:102E4C00B491610004F4B6F0550E00D0B46FAA0E24
:102E5C00B46FB481AA0CB19605018A518B118C11F7
:102E6C00D8B412000500FA6E8A51FD6E8B51FE6EBD
:102E7C008C51FF6EFA50120001EE60F12A0EEE6AD0
:102E8C00E806FDE10401080E5D6F000E5E6F000E9A
:102E9C005F6F000133EF15F0010ED56FD76BD86B58
:102EAC00D96BDA6BDB6B020EDC6FDD6FDE6FDF6F05
:102EBC00D46B800ED66F800C010E0401566F140E6D
:102ECC00576F526B516B506B556B0A0E546F710EE2
:102EDC00536F568F710C570E5D6E050E5E6E506AF9
:102EEC00516A56C552F55D0E536E050E546E3AEF8F
:102EFC0016F0800E0C6F4A0E0D6F0E6B0F6B070EDB
:102F0C00116F1F0E106F0B690A69096912000C0E04
:102F1C000301326FA50E316F010E336F2F692E6BCB
:102F2C00B996800E306F800C0001606B616B636B27
:102F3C00646B656B666B676B686B1200620E0001ED
:102F4C00AD6FAF6BB36B080EB16FB06BAC6B1200A7
:102F5C0003010351016E0451026E0551036E046AA4
:102F6C001200016EB2A2FED7610004F4A3F21200AB
:102F7C0001C58AF502C58BF503C58CF51200A00EB0
:102F8C0000017F6F330E7D6F330CA1B6B1A611001B
:102F9C0031EC17F01100026E0250B7EF17F0550E1E
:102FAC0000012CEF17F003010D8F1200010E686F5A
:0E2FBC00010CD69A1200120012001200120030
:020000040020DA
:10000000FF0FFF0FFF0FFF0FFF0FFF0FFF0FFF0F80
:10001000FF0FFF0FFF0FFF0FFF0FFF0FFF0FFF0F70
:020000040030CA
:0A0000008CFDF7FF9FFFFFFFFFFFDD
:00000001FF
