:020000040000FA
:040000000DEF00F010
:0400080018EF1BF0E2
:06001800FF00C2EF1CF026
:10260000004D6561737572656420496E7075742044
:102610004672657175656E63793A2025756B487AE7
:102620000A0D004D6561737572656420496E7075A1
:1026300074204672657175656E63793A2025754818
:102640007A0A0D004E6577204E434F20496E637223
:0F265000656D656E743A20307825780A0D0000AC
:1026600061001CF5D9F4610020F5DAF4DEC4F6F45B
:10267000DDC4F7F4000EF86E0800F550250AD8A462
:1026800044EF13F046EF13F082EF14F061001CF5F5
:10269000D9F4610020F5DAF4DE2A000EDD22000E06
:1026A0000501636F000E626F62C566F563C567F56D
:1026B0006469656961001CF5D9F4610020F5DAF4FC
:1026C000DEC4F6F4DDC4F7F4000EF86E0800F55031
:1026D000750AD8A46EEF13F070EF13F0BBEF13F090
:1026E00061001CF5D9F4610020F5DAF4DE2A000E51
:1026F000DD22610024F5D9F4610028F5DAF46100E7
:102700007CF34BF5020EDE2661007CF34CF5000EE7
:10271000DD2261002CF5D9F4610030F5DAF46100B6
:1027200078F34DF5610074F34EF54DC550F54EC587
:1027300051F5526A536A546A556A566A576A45C5D2
:102740001EF546C51FF550C520F551C521F552C5EA
:1027500022F553C523F554C524F555C525F556C5B1
:1027600026F557C527F512EC16F01EC545F51FC511
:1027700046F5A3EF14F061001CF5D9F4610020F5D3
:10278000DAF4DEC4F6F4DDC4F7F4000EF86E0800E7
:10279000F550780AD8B4CFEF13F0D1EF13F0E7EF8C
:1027A00013F061001CF5D9F4610020F5DAF4DEC401
:1027B000F6F4DDC4F7F4000EF86E0800F550580A80
:1027C000D8A4E5EF13F0E7EF13F044EF14F0610045
:1027D0001CF5D9F4610020F5DAF4DEC4F6F4DDC4AA
:1027E000F7F4000EF86E08006100D4F34FF56100B5
:1027F0001CF5D9F4610020F5DAF4DE2A000EDD22A2
:10280000610024F5D9F4610028F5DAF461007CF365
:102810004BF5020EDE2661007CF34CF5000EDD2246
:1028200061002CF5D9F4610030F5DAF4610078F339
:102830004DF5610074F34EF54DC550F54EC551F59B
:10284000526A536A546A556A566A576A45C51EF5F4
:1028500046C51FF550C520F551C521F552C522F5D5
:1028600053C523F554C524F555C525F556C526F59C
:1028700057C527F54FC528F5A4EC14F01EC545F53E
:102880001FC546F5A3EF14F061001CF5D9F46100F3
:1028900020F5DAF4DEC4F6F4DDC4F7F4000EF86EC9
:1028A0000800F550250AD8A458EF14F05AEF14F098
:1028B00073EF14F061001CF5D9F4610020F5DAF42F
:1028C000DE2A000EDD22000E046E250E036E45C5C5
:1028D00005F546C506F536EC19F0000E466E010EFC
:1028E000456EA3EF14F061001CF5D9F4610020F5EA
:1028F000DAF4DE2A000EDD22000E466E000E456E72
:10290000A3EF14F061001CF5D9F4610020F5DAF4AE
:10291000DEC4F6F4DDC4F7F4000EF86E0800F550DE
:10292000036E046A45C505F546C506F536EC19F093
:1029300061001CF5D9F4610020F5DAF4DE2A000EFE
:10294000DD226DEF14F01200050165BFAAEF14F04F
:10295000ACEF14F0ADEF14F0669365BFBAEF14F06E
:10296000655106E16405D8B0B8EF14F0BAEF14F081
:10297000C0EF14F0000E366E010E356EC4EF14F089
:1029800064C535F565C536F562C537F563C538F5F7
:1029900066A9CDEF14F0CFEF14F0D3EF14F0FE0ED4
:1029A0003726FF0E382220C539F521C53AF522C554
:1029B0003BF523C53CF524C53DF525C53EF526C5AB
:1029C0003FF527C540F5000E426E1F0E416E000E0A
:1029D0008A6F9FEF15F04106D8A042060F0E3914FA
:1029E000436E446A44BEFEEF14F0445009E10A0EFF
:1029F000435CD8A0FEEF14F000EF15F008EF15F0DF
:102A0000570E4324436E000E4420446E0EEF15F023
:102A1000300E4324436E000E4420446EBF0E296ED8
:102A2000FF0E2A6E28502B6E2C6A29502B262A5016
:102A30002C222C500AE11A0E2B5CD8A022EF15F0A4
:102A400025EF15F0010E26EF15F0000E316E326AFB
:102A500031503210D8B42FEF15F031EF15F061EF8F
:102A600015F09F0E296EFF0E2A6E200E43102B6E5E
:102A7000000E44102C6E29502B262A502C222C504C
:102A80000AE11A0E2B5CD8A048EF15F04BEF15F0B9
:102A9000010E4CEF15F0000E336E346A33503410D3
:102AA000D8B455EF15F057EF15F061EF15F043C5A9
:102AB00007F544C508F528EC1AF007C543F508C525
:102AC00044F56B0E4124D96E050E4220DA6E61008A
:102AD0000CF5DFF43506D8A036063706D8A0380640
:102AE00039C529F53AC52AF53BC52BF53CC52CF56A
:102AF0003DC52DF53EC52EF53FC52FF540C530F53A
:102B0000050E8CEF15F0D89030322F322E322D3248
:102B10002C322B322A322932E82E83EF15F029C5C8
:102B200039F52AC53AF52BC53BF52CC53CF52DC525
:102B30003DF52EC53EF52FC53FF530C540F542BEEB
:102B4000ABEF15F0425009E1020E415CD8A0ABEFAB
:102B500015F0ADEF15F0DEEF15F039503A103B10DF
:102B60003C103D103E103F104010D8A4BAEF15F0B5
:102B7000BCEF15F0EBEF14F036BEC9EF15F0365090
:102B800006E13504D8B0C7EF15F0C9EF15F0EBEF4B
:102B900014F038BED4EF15F0385008E13704D8A04F
:102BA000D4EF15F0D6EF15F0DEEF15F0050166B3A2
:102BB000DCEF15F0DEEF15F0EBEF14F0050166A980
:102BC000E4EF15F0E6EF15F0FDEF15F04106D8A0A3
:102BD00042066B0E4124D96E050E4220DA6E61006A
:102BE000A0F4DFF44106D8A042066B0E4124D96E52
:102BF000050E4220DA6E300EDF6E1EC513F51FC5BE
:102C000014F56B0E4124156E050E4220166E37C565
:102C100017F538C518F572EC18F013C51EF514C574
:102C20001FF51200050165BF18EF16F01AEF16F038
:102C30001BEF16F0669365BF28EF16F0655106E1AD
:102C40006405D8B026EF16F028EF16F02EEF16F038
:102C5000000E316E010E306E32EF16F064C530F5A5
:102C600065C531F562C532F563C533F520C534F568
:102C700021C535F522C536F523C537F524C538F508
:102C800025C539F526C53AF527C53BF5000E3D6E3D
:102C90001F0E3C6E000E8A6FC4EF16F03C06D8A0E3
:102CA0003D066B0E3C24D96E050E3D20DA6E34C510
:102CB00001F535C502F536C503F537C504F538C548
:102CC00005F539C506F53AC507F53BC508F50A0E01
:102CD000096E000E0A6E000E0B6E000E0C6E000EDA
:102CE0000D6E000E0E6E000E0F6E000E106E0AECD2
:102CF00018F001C528F502C529F503C52AF504C554
:102D00002BF505C52CF506C52DF507C52EF508C50F
:102D10002FF52850300FDF6E3006D8A0310632066E
:102D2000D8A0330634C501F535C502F536C503F51F
:102D300037C504F538C505F539C506F53AC507F5B3
:102D40003BC508F50A0E096E000E0A6E000E0B6EEA
:102D5000000E0C6E000E0D6E000E0E6E000E0F6E4D
:102D6000000E106E92EC17F001C534F502C535F572
:102D700003C536F504C537F505C538F506C539F57B
:102D800007C53AF508C53BF53C503D10D8B4CBEF2C
:102D900016F0CDEF16F0FEEF16F034503510361069
:102DA0003710381039103A103B10D8A4DAEF16F06B
:102DB000DCEF16F04EEF16F031BEE9EF16F03150B1
:102DC00006E13004D8B0E7EF16F0E9EF16F04EEF69
:102DD00016F033BEF4EF16F0335008E13204D8A0F9
:102DE000F4EF16F0F6EF16F0FEEF16F0050166B3FD
:102DF000FCEF16F0FEEF16F04EEF16F01EC513F5C1
:102E00001FC514F56B0E3C24156E050E3D20166E85
:102E100032C517F533C518F572EC18F013C51EF559
:102E200014C51FF5120057EC1AF0000EF2EC1CF05E
:102E3000010EE2EC1CF0020ED2EC1CF0000E0501BB
:102E4000696F000E686F220E016E3B0E026E000E5F
:102E5000036E7BEC1DF01A0E016E3B0E026E000E2F
:102E6000036E6DEC1DF0D68E05016951D8B43BEFB1
:102E700017F03DEF17F077EF17F0000E696F4FEC8A
:102E80001DF0045008E10304D8A049EF17F04BEF00
:102E900017F066EF17F04FEC1DF00150056E02C5FC
:102EA00006F503C507F5030E096EE80E086EF4EC8F
:102EB0001AF00501A46F010E9A6F260E9B6FA4C530
:102EC0009CF59D6B51EC1CF077EF17F0230E05017C
:102ED0009A6F260E9B6F4FEC1DF001C59CF502C545
:102EE0009DF503C59EF504C59FF551EC1CF0050149
:102EF0006851D8B47EEF17F080EF17F034EF17F079
:102F0000000E686F440E9A6F260E9B6F44EC1DF006
:102F100001C59CF502C59DF551EC1CF034EF17F08E
:102F20000DEF00F021EE11F1070EDE6AE806FDE27A
:102F300009500A100B100C100D100E100F1010106D
:102F4000D8B4A5EF17F0A7EF17F0F9EF17F0010EBF
:102F5000196EB5EF17F0D89009360A360B360C36D5
:102F60000D360E360F361036192A10AEBAEF17F09E
:102F7000BCEF17F0ABEF17F0D890113612361336BE
:102F8000143615361636173618360950015C0A50B5
:102F900002580B5003580C5004580D5005580E5051
:102FA00006580F50075810500858D8A0DAEF17F0FD
:102FB000DCEF17F0EDEF17F00950015E0A50025AEE
:102FC0000B50035A0C50045A0D50055A0E50065A15
:102FD0000F50075A1050085A1180D89010320F32F3
:102FE0000E320D320C320B320A320932192EBCEF7E
:102FF00017F011C501F512C502F513C503F514C587
:1030000004F515C505F516C506F517C507F518C568
:1030100008F5120009500A100B100C100D100E10BC
:103020000F101010D8B417EF18F019EF18F061EF67
:1030300018F0010E116E27EF18F0D89009360A36F5
:103040000B360C360D360E360F361036112A10AEF2
:103050002CEF18F02EEF18F01DEF18F00950015C5E
:103060000A5002580B5003580C5004580D50055884
:103070000E5006580F50075810500858D8A043EF6C
:1030800018F045EF18F055EF18F00950015E0A509E
:10309000025A0B50035A0C50045A0D50055A0E5048
:1030A000065A0F50075A1050085AD89010320F3253
:1030B0000E320D320C320B320A320932112E2EEF43
:1030C00018F001C501F502C502F503C503F504C5F5
:1030D00004F505C505F506C506F507C507F508C5D8
:1030E00008F51200050166A178EF18F07AEF18F0E4
:1030F00084EF18F015C50CF516C50DF513C50EF5C2
:1031000014C50FF53BEC1BF018BE89EF18F08BEFE0
:1031100018F091EF18F017C51CF518C51DF595EFBF
:1031200018F0000E1D6E000E1C6E000E1B6E000EC1
:103130001A6EA7EF18F0000E046E200E036E13C572
:1031400005F514C506F536EC19F01A4A1B2A1C5071
:103150001A5C1B50800A196E1D50800A1958D8A09D
:10316000B4EF18F0B6EF18F09BEF18F0050166B158
:10317000BCEF18F0BEEF18F0C8EF18F015C50CF54D
:1031800016C50DF513C50EF514C50FF53BEC1BF078
:1031900015C501F516C502F57BEC1BF01C5001248A
:1031A000136E1D500220146E1200000EC26E000E2F
:1031B000C16E000EBE6E080EC36E000EBF6E000E16
:1031C000C06E070ECA6EF60ECB6E7F0EC66EC76857
:1031D000C868FD0EC96E04011869FC0E106F0869FD
:1031E000070E206FF50E286FDD0E006F000E196FB1
:1031F000000E296F000E216F000E096F000E016F87
:10320000000E116F000E0201896F000E886F000E14
:10321000876F000E866F000E0401226F000E2A6F6A
:10322000000E026F000E0A6F000E126F000E1A6F72
:1032300003690B6913691B69070E236F2B69046906
:103240000C6914691C690F0E246F2C69010E0201B0
:10325000086F050E616F100E596F400E1A6F110E38
:103260005A6F200E296F290E726F1200055006103A
:10327000D8B43DEF19F03FEF19F048EF19F00550C1
:103280000610D8A446EF19F048EF19F04DEF19F0E9
:10329000035088EC1DF080EF19F020EE04F005508B
:1032A000D9260650DA22DE50DE10D8B45AEF19F0D3
:1032B0005CEF19F077EF19F020EE04F00550D926F5
:1032C0000650DA2210EE02F00550E1260650E22206
:1032D000DE50E65CE650800A0B6EDE50800A0B582A
:1032E000D8B075EF19F077EF19F080EF19F020EEF4
:1032F00002F00550D9260650DA22DE2A000EDD2221
:103300001200000E0201A56F000EA66F000EA76F3F
:10331000000EA86F000EA96F000EAA6FA00EAB6F73
:10332000800EAC6F000EAD6F220EAE6F000EAF6F51
:10333000000EB06F000EB16F000EB26F000EB36FD3
:10334000000E016E000E026E000E036E5FEC1DF0AB
:10335000000E016E000E026E000E036E58EC1DF0A2
:10336000000E016E000E026E000E036E66EC1DF084
:10337000000E05016A6F1200FC0E0301D96FDA69B5
:10338000040EDB6F000EDC6F000EDF6F000EE06FCF
:10339000000EE56F100EE76F000EEC6F050EEE6F7E
:1033A000000EEF6F000EF06F000EF16F000EF26F67
:1033B000000EF46FA30EF56F540EF66F000EF76F4C
:1033C000000EF86F020EF96F000EFA6F940EF36F95
:1033D000B090A080300E016E3B0E026E000E036EA8
:1033E0007BEC1DF012005AC55EF55BC55FF5000E63
:1033F0000501616F000E606F11EF1AF058C545F5B9
:1034000059C546F55E0E476E050E486E5CC549F51A
:103410005DC54AF530EC13F0455005016027465074
:103420006123610078F5F6F461007CF5F7F4000E95
:10343000F86E0800F5500009D8A421EF1AF023EF28
:103440001AF0FEEF19F060C558F561C559F5120084
:103450009F0E096EFF0E0A6E07C50BF508C50CF529
:1034600009500B260A500C220C500AE11A0E0B5C74
:10347000D8A03DEF1AF040EF1AF0010E41EF1AF01C
:10348000000E0D6E0E6A0D500E10D8B44AEF1AF0F1
:103490004CEF1AF052EF1AF05F0E0714076E086A2D
:1034A00056EF1AF007C507F508C508F5120095ECA8
:1034B0001DF0B0EC1CF0D5EC18F01FEC1DF065EC25
:1034C0001CF0A8EC1AF0BCEC19F08BEC1CF0CEEC64
:1034D0001AF011EC1DF0D0EC1BF09EEC1CF038EC57
:1034E0001CF039EC1DF002EC1DF0EAEC1BF078EC5E
:1034F0001CF082EC1AF082EC1DF081EC19F074ECF7
:103500001DF01200020E0001E86FE00EF96F030ECD
:10351000FA6F000EFB6F040EF16F440EF06F840E15
:10352000FD6F000EF86F020EF76F000EEF6F020EC8
:10353000EE6F350EFF6F000EFE6FB89AB898B89E0A
:10354000B89CA89AA898A89EA89CC00EFC6F1200D0
:10355000010E0001E86FE20EF96F030EFA6F000E24
:10356000FB6F030EF16FE00EF06F840EFD6F000E27
:10357000F86F020EF76F000EEF6F020EEE6F100E77
:10358000FF6F000EFE6FB49AB498B49EB49CA49AD8
:10359000A498A49EA49CC00EFC6F1200000E000113
:1035A000E86F2E0EF96F030EFA6F000EFB6F000E20
:1035B000F16F7D0EF06F000EFD6F000EF86F010EC3
:1035C000F76F000EEF6F010EEE6F1B0EFF6F000E18
:1035D000FE6FB09AB098B09EB09CA09AA098A09EA2
:1035E000A09CC00EFC6F1200000E0D6E04EF1BF0CD
:1035F00008C50AF509C50BF50C6A0A50055E0B50A3
:10360000065A0C50075A0D2A08C50AF509C50BF5CC
:103610000C6A0A50055C0B5006580C500758D8B07D
:1036200014EF1BF016EF1BF0F8EF1AF00D5012001C
:10363000A0A01DEF1BF01FEF1BF02AEF1BF0B0A0A6
:1036400024EF1BF026EF1BF02AEF1BF01EEC1CF002
:103650003AEF1BF0A1A62FEF1BF031EF1BF03AEF72
:103660001BF0B1A636EF1BF038EF1BF03AEF1BF062
:1036700004EC1CF01100000E126E000E116E4CEFE7
:103680001BF010C503F5046A0EC505F50FC506F558
:1036900036EC19F0114A122A11500C24D96E12502E
:1036A0000D20DA6EDF50106E1050D8A45AEF1BF0C8
:1036B0005CEF1BF041EF1BF012009F0E036EFF0E3C
:1036C000046E200E0110056E000E0210066E0350EF
:1036D00005260450062206500AE11A0E055CD8A001
:1036E00074EF1BF077EF1BF0010E78EF1BF0000E6C
:1036F000016E026A120001C503F502C504F583EFED
:103700001BF0014A022A610004F4D9F4610008F4B4
:10371000DAF4DF50D8A48FEF1BF091EF1BF081EFAC
:103720001BF00350015C016E04500258026E12003F
:103730009F0E036EFF0E046E01C505F502C506F56A
:10374000035005260450062206500AE11A0E055CB5
:10375000D8A0ADEF1BF0B0EF1BF0010EB1EF1BF0E6
:10376000000E016E026A1200BF0E036EFF0E046EA1
:1037700001C505F502C506F50350052604500622CD
:1037800006500AE11A0E055CD8A0C9EF1BF0CCEF79
:103790001BF0010ECDEF1BF0000E016E026A12004D
:1037A000010E0001D56F000ED76F000ED86F000E0E
:1037B000D96F000EDA6F000EDB6F020EDC6F020EA7
:1037C000DD6F020EDE6F020EDF6F000ED46F800E13
:1037D000D66F1200000E0001D56F0A0ED76F2A0EA9
:1037E000D86F180ED96F2A0EDA6F2A0EDB6F0A0E09
:1037F000DC6F000EDD6F000EDE6F000EDF6F000E5F
:10380000D46F860ED66F1200B196050194519511B2
:103810009611D8B40EEF1CF010EF1CF01DEF1CF049
:1038200002D81DEF1CF00500FA6E9451FD6E955103
:10383000FE6E9651FF6EFA5012001200B090050114
:10384000975198119911D8B428EF1CF02AEF1CF069
:1038500037EF1CF002D837EF1CF00500FA6E9751D5
:10386000FD6E9851FE6E9951FF6EFA5012001200D3
:10387000040E0301266F000E256F000E276FF10E58
:10388000236F000E226FB196A1862E0E016E3B0EA5
:10389000026E000E036E6DEC1DF0F00E0301246F3E
:1038A00012009C0E0501A26F050EA36F000E586E4C
:1038B000000E596E9AC55AF59BC55BF5A20E5C6E5B
:1038C000050E5D6EF3EC19F01200010E0401566F47
:1038D000140E576F000E526F000E516F000E506F96
:1038E000000E556F0A0E546F710E536F568F1200F3
:1038F000010E04014E6F010E4F6F000E4A6F000E55
:10390000496F000E486F030E4D6F330E4C6F330E30
:103910004B6F4E8F1200010E0401466F710E476F00
:10392000000E426F000E416F010E406F000E456F9A
:10393000000E446F000E436F468F1200800E03018D
:103940000C6F4A0E0D6F000E0E6F000E0F6F070EFC
:10395000116F1F0E106F0B690A6909690D8F120034
:10396000000E0001606F000E616F000E636F000EAD
:10397000646F000E656F000E666F000E676F000EBD
:10398000686F120001EE60F12B0EEE6AE806FDE1B1
:103990000401080E5D6F000E5E6F000E5F6F000188
:1039A00013EF17F0016E550E0001B46FAA0EB46F3D
:1039B000B491610004F4B8F0550EB46FAA0EB46F60
:1039C000B4811200016E550E0001B46FAA0EB46FDF
:1039D000B491610004F4B7F0550EB46FAA0EB46F41
:1039E000B4811200016E550E0001B46FAA0EB46FBF
:1039F000B491610004F4B6F0550EB46FAA0EB46F22
:103A0000B4811200040E03013E6F030E3D6F120ECF
:103A10003F6FA00E3B6F000E3A6FBD96C00E3C6F1D
:103A200012000C0E0301326FA50E316F010E336FC1
:103A30002F69000E2E6FB996800E306F1200620E45
:103A40000001AD6F000EAF6F000EB36F080EB16FC7
:103A5000000EB06F000EAC6F1200016EB2A233EF19
:103A60001DF035EF1DF02EEF1DF0610004F4A3F200
:103A70001200810E03011B6F9A0E196F000E186F52
:103A8000B19E800E1A6F12000301E251046E036AA8
:103A9000E1510324016E000E0420026E12000301A6
:103AA0000351016E0451026E0551036E046A120047
:103AB00001C58EF502C58FF503C590F5120001C54D
:103AC00091F502C592F503C593F5120001C58BF57A
:103AD00002C58CF503C58DF5120001C594F502C52C
:103AE00095F503C596F51200550E0001B46FAA0EA8
:103AF000B46FB481120001C597F502C598F503C5EE
:103B000099F51200A00E00017F6F330E7D6F120039
:103B1000026E02502DEC1DF01200010E0501696FBE
:103B20001200010E0501686F1200D69A12001200F1
:023B3000120081
:020000040020DA
:10000000FF0FFF0FFF0FFF0FFF0FFF0FFF0FFF0F80
:10001000FF0FFF0FFF0FFF0FFF0FFF0FFF0FFF0F70
:020000040030CA
:0A0000008CFFF7FF9FFFFFFFFFFFDB
:00000001FF
