:020000040000FA
:040000000DEF00F010
:040008003BEF1BF0BF
:06001800FF00E5EF1CF003
:10260000004D6561737572656420496E7075742044
:102610004672657175656E63793A2025756B487AE7
:102620000A0D004D6561737572656420496E7075A1
:1026300074204672657175656E63793A2025754818
:102640007A0A0D004E6577204E434F20496E637223
:10265000656D656E743A20307825780A0D004F70EC
:10266000656E20576972652044657465637465649E
:052670002E0A0D000020
:1026760061001CF5D9F4610020F5DAF4DEC4F6F445
:10268600DDC4F7F4000EF86E0800F550250AD8A44C
:102696004FEF13F051EF13F08DEF14F061001CF5BE
:1026A600D9F4610020F5DAF4DE2A000EDD22000EF0
:1026B6000501636F000E626F62C566F563C567F557
:1026C6006469656961001CF5D9F4610020F5DAF4E6
:1026D600DEC4F6F4DDC4F7F4000EF86E0800F5501B
:1026E600750AD8A479EF13F07BEF13F0C6EF13F059
:1026F60061001CF5D9F4610020F5DAF4DE2A000E3B
:10270600DD22610024F5D9F4610028F5DAF46100D0
:102716007CF34BF5020EDE2661007CF34CF5000ED1
:10272600DD2261002CF5D9F4610030F5DAF46100A0
:1027360078F34DF5610074F34EF54DC550F54EC571
:1027460051F5526A536A546A556A566A576A45C5BC
:102756001EF546C51FF550C520F551C521F552C5D4
:1027660022F553C523F554C524F555C525F556C59B
:1027760026F557C527F51DEC16F01EC545F51FC5F0
:1027860046F5AEEF14F061001CF5D9F4610020F5B2
:10279600DAF4DEC4F6F4DDC4F7F4000EF86E0800D1
:1027A600F550780AD8B4DAEF13F0DCEF13F0F2EF55
:1027B60013F061001CF5D9F4610020F5DAF4DEC4EB
:1027C600F6F4DDC4F7F4000EF86E0800F550580A6A
:1027D600D8A4F0EF13F0F2EF13F04FEF14F061000E
:1027E6001CF5D9F4610020F5DAF4DEC4F6F4DDC494
:1027F600F7F4000EF86E08006100D4F34FF561009F
:102806001CF5D9F4610020F5DAF4DE2A000EDD228B
:10281600610024F5D9F4610028F5DAF461007CF34F
:102826004BF5020EDE2661007CF34CF5000EDD2230
:1028360061002CF5D9F4610030F5DAF4610078F323
:102846004DF5610074F34EF54DC550F54EC551F585
:10285600526A536A546A556A566A576A45C51EF5DE
:1028660046C51FF550C520F551C521F552C522F5BF
:1028760053C523F554C524F555C525F556C526F586
:1028860057C527F54FC528F5AFEC14F01EC545F51D
:102896001FC546F5AEEF14F061001CF5D9F46100D2
:1028A60020F5DAF4DEC4F6F4DDC4F7F4000EF86EB3
:1028B6000800F550250AD8A463EF14F065EF14F06C
:1028C6007EEF14F061001CF5D9F4610020F5DAF40E
:1028D600DE2A000EDD22000E046E250E036E45C5AF
:1028E60005F546C506F559EC19F0000E466E010EC3
:1028F600456EAEEF14F061001CF5D9F4610020F5C9
:10290600DAF4DE2A000EDD22000E466E000E456E5B
:10291600AEEF14F061001CF5D9F4610020F5DAF48D
:10292600DEC4F6F4DDC4F7F4000EF86E0800F550C8
:10293600036E046A45C505F546C506F559EC19F05A
:1029460061001CF5D9F4610020F5DAF4DE2A000EE8
:10295600DD2278EF14F01200050165BFB5EF14F023
:10296600B7EF14F0B8EF14F0669365BFC5EF14F037
:10297600655106E16405D8B0C3EF14F0C5EF14F055
:10298600CBEF14F0000E366E010E356ECFEF14F05D
:1029960064C535F565C536F562C537F563C538F5E1
:1029A60066A9D8EF14F0DAEF14F0DEEF14F0FE0E9D
:1029B6003726FF0E382220C539F521C53AF522C53E
:1029C6003BF523C53CF524C53DF525C53EF526C595
:1029D6003FF527C540F5000E426E1F0E416E000EF4
:1029E6008A6FAAEF15F04106D8A042060F0E3914D9
:1029F600436E446A44BE09EF15F0445009E10A0EDD
:102A0600435CD8A009EF15F00BEF15F013EF15F0A6
:102A1600570E4324436E000E4420446E19EF15F002
:102A2600300E4324436E000E4420446EBF0E296EC2
:102A3600FF0E2A6E28502B6E2C6A29502B262A5000
:102A46002C222C500AE11A0E2B5CD8A02DEF15F083
:102A560030EF15F0010E31EF15F0000E316E326ACF
:102A660031503210D8B43AEF15F03CEF15F06CEF58
:102A760015F09F0E296EFF0E2A6E200E43102B6E48
:102A8600000E44102C6E29502B262A502C222C5036
:102A96000AE11A0E2B5CD8A053EF15F056EF15F08D
:102AA600010E57EF15F0000E336E346A33503410B2
:102AB600D8B460EF15F062EF15F06CEF15F043C572
:102AC60007F544C508F54BEC1AF007C543F508C5EC
:102AD60044F56B0E4124D96E050E4220DA6E610074
:102AE6000CF5DFF43506D8A036063706D8A038062A
:102AF60039C529F53AC52AF53BC52BF53CC52CF554
:102B06003DC52DF53EC52EF53FC52FF540C530F523
:102B1600050E97EF15F0D89030322F322E322D3227
:102B26002C322B322A322932E82E8EEF15F029C5A7
:102B360039F52AC53AF52BC53BF52CC53CF52DC50F
:102B46003DF52EC53EF52FC53FF530C540F542BED5
:102B5600B6EF15F0425009E1020E415CD8A0B6EF7F
:102B660015F0B8EF15F0E9EF15F039503A103B10B3
:102B76003C103D103E103F104010D8A4C5EF15F094
:102B8600C7EF15F0F6EF14F036BED4EF15F0365059
:102B960006E13504D8B0D2EF15F0D4EF15F0F6EF14
:102BA60014F038BEDFEF15F0385008E13704D8A02E
:102BB600DFEF15F0E1EF15F0E9EF15F0050166B36B
:102BC600E7EF15F0E9EF15F0F6EF14F0050166A949
:102BD600EFEF15F0F1EF15F008EF16F04106D8A06B
:102BE60042066B0E4124D96E050E4220DA6E610054
:102BF600A0F4DFF44106D8A042066B0E4124D96E3C
:102C0600050E4220DA6E300EDF6E1EC513F51FC5A7
:102C160014F56B0E4124156E050E4220166E37C54F
:102C260017F538C518F595EC18F013C51EF514C53B
:102C36001FF51200050165BF23EF16F025EF16F00C
:102C460026EF16F0669365BF33EF16F0655106E181
:102C56006405D8B031EF16F033EF16F039EF16F001
:102C6600000E316E010E306E3DEF16F064C530F584
:102C760065C531F562C532F563C533F520C534F552
:102C860021C535F522C536F523C537F524C538F5F2
:102C960025C539F526C53AF527C53BF5000E3D6E27
:102CA6001F0E3C6E000E8A6FCFEF16F03C06D8A0C2
:102CB6003D066B0E3C24D96E050E3D20DA6E34C5FA
:102CC60001F535C502F536C503F537C504F538C532
:102CD60005F539C506F53AC507F53BC508F50A0EEB
:102CE600096E000E0A6E000E0B6E000E0C6E000EC4
:102CF6000D6E000E0E6E000E0F6E000E106E2DEC99
:102D060018F001C528F502C529F503C52AF504C53D
:102D16002BF505C52CF506C52DF507C52EF508C5F9
:102D26002FF52850300FDF6E3006D8A03106320658
:102D3600D8A0330634C501F535C502F536C503F509
:102D460037C504F538C505F539C506F53AC507F59D
:102D56003BC508F50A0E096E000E0A6E000E0B6ED4
:102D6600000E0C6E000E0D6E000E0E6E000E0F6E37
:102D7600000E106EB5EC17F001C534F502C535F539
:102D860003C536F504C537F505C538F506C539F565
:102D960007C53AF508C53BF53C503D10D8B4D6EF0B
:102DA60016F0D8EF16F009EF17F03450351036103C
:102DB6003710381039103A103B10D8A4E5EF16F04A
:102DC600E7EF16F059EF16F031BEF4EF16F031507A
:102DD60006E13004D8B0F2EF16F0F4EF16F059EF32
:102DE60016F033BEFFEF16F0335008E13204D8A0D8
:102DF600FFEF16F001EF17F009EF17F0050166B3C4
:102E060007EF17F009EF17F059EF16F01EC513F587
:102E16001FC514F56B0E3C24156E050E3D20166E6F
:102E260032C517F533C518F595EC18F013C51EF520
:102E360014C51FF512007AEC1AF0000E15EC1DF001
:102E4600010E05EC1DF0020EF5EC1CF0000E05015E
:102E5600696F000E686F680E016E3B0E026E000E03
:102E6600036E9EEC1DF0600E016E3B0E026E000EB0
:102E7600036E90EC1DF0D68E05016951D8B446EF6D
:102E860017F048EF17F09AEF17F0000E696F72EC23
:102E96001DF0045008E10304D8A054EF17F056EFD4
:102EA60017F071EF17F072EC1DF00150056E02C5B8
:102EB60006F503C507F5030E096EE80E086E17EC56
:102EC6001BF00501A46F010E9A6F260E9B6FA4C519
:102ED6009CF59D6B74EC1CF09AEF17F072EC1DF0EC
:102EE60004500310021009E1060E015CD8A07EEF23
:102EF60017F080EF17F093EF17F0230E05019A6F86
:102F0600260E9B6F72EC1DF001C59CF502C59DF562
:102F160003C59EF504C59FF574EC1CF09AEF17F0F7
:102F26005E0E05019A6F260E9B6F74EC1CF0050170
:102F36006851D8B4A1EF17F0A3EF17F03FEF17F0E1
:102F4600000E686F440E9A6F260E9B6F67EC1DF09D
:102F560001C59CF502C59DF574EC1CF03FEF17F01A
:102F66000DEF00F021EE11F1070EDE6AE806FDE234
:102F760009500A100B100C100D100E100F10101027
:102F8600D8B4C8EF17F0CAEF17F01CEF18F0010E0F
:102F9600196ED8EF17F0D89009360A360B360C366C
:102FA6000D360E360F361036192A10AEDDEF17F035
:102FB600DFEF17F0CEEF17F0D89011361236133632
:102FC600143615361636173618360950015C0A506F
:102FD60002580B5003580C5004580D5005580E500B
:102FE60006580F50075810500858D8A0FDEF17F094
:102FF600FFEF17F010EF18F00950015E0A50025A61
:103006000B50035A0C50045A0D50055A0E50065ACE
:103016000F50075A1050085A1180D89010320F32AC
:103026000E320D320C320B320A320932192EDFEF14
:1030360017F011C501F512C502F513C503F514C540
:1030460004F515C505F516C506F517C507F518C522
:1030560008F5120009500A100B100C100D100E1076
:103066000F101010D8B43AEF18F03CEF18F084EFB8
:1030760018F0010E116E4AEF18F0D89009360A368C
:103086000B360C360D360E360F361036112A10AEAC
:103096004FEF18F051EF18F040EF18F00950015CAF
:1030A6000A5002580B5003580C5004580D5005583E
:1030B6000E5006580F50075810500858D8A066EF03
:1030C60018F068EF18F078EF18F00950015E0A5012
:1030D600025A0B50035A0C50045A0D50055A0E5002
:1030E600065A0F50075A1050085AD89010320F320D
:1030F6000E320D320C320B320A320932112E51EFDA
:1031060018F001C501F502C502F503C503F504C5AE
:1031160004F505C505F506C506F507C507F508C591
:1031260008F51200050166A19BEF18F09DEF18F057
:10313600A7EF18F015C50CF516C50DF513C50EF558
:1031460014C50FF55EEC1BF018BEACEF18F0AEEF31
:1031560018F0B4EF18F017C51CF518C51DF5B8EF33
:1031660018F0000E1D6E000E1C6E000E1B6E000E7B
:103176001A6ECAEF18F0000E046E200E036E13C509
:1031860005F514C506F559EC19F01A4A1B2A1C5008
:103196001A5C1B50800A196E1D50800A1958D8A057
:1031A600D7EF18F0D9EF18F0BEEF18F0050166B1A9
:1031B600DFEF18F0E1EF18F0EBEF18F015C50CF59E
:1031C60016C50DF513C50EF514C50FF55EEC1BF00F
:1031D60015C501F516C502F59EEC1BF01C50012421
:1031E600136E1D500220146E1200000EC26E000EE9
:1031F600C16E000EBE6E080EC36E000EBF6E000ED0
:10320600C06E070ECA6EF60ECB6E7F0EC66EC76810
:10321600C868FD0EC96E04011869FC0E106F0869B6
:10322600070E206FF50E286FDD0E006F000E196F6A
:10323600000E296F000E216F000E096F000E016F40
:10324600000E116F000E0201896F000E886F000ECE
:10325600876F000E866F000E0401226F000E2A6F24
:10326600000E026F000E0A6F000E126F000E1A6F2C
:1032760003690B6913691B69070E236F2B690469C0
:103286000C6914691C690F0E246F2C69010E02016A
:10329600086F050E616F100E596F400E1A6F110EF2
:1032A6005A6F200E296F290E726F120005500610F4
:1032B600D8B460EF19F062EF19F06BEF19F0055012
:1032C6000610D8A469EF19F06BEF19F070EF19F03A
:1032D6000350ABEC1DF0A3EF19F020EE04F00550FF
:1032E600D9260650DA22DE50DE10D8B47DEF19F06A
:1032F6007FEF19F09AEF19F020EE04F00550D92669
:103306000650DA2210EE02F00550E1260650E222BF
:10331600DE50E65CE650800A0B6EDE50800A0B58E3
:10332600D8B098EF19F09AEF19F0A3EF19F020EE44
:1033360002F00550D9260650DA22DE2A000EDD22DA
:103346001200000E0201A56F000EA66F000EA76FF9
:10335600000EA86F000EA96F000EAA6FA00EAB6F2D
:10336600800EAC6F000EAD6F220EAE6F000EAF6F0B
:10337600000EB06F000EB16F000EB26F000EB36F8D
:10338600000E016E000E026E000E036E82EC1DF042
:10339600000E016E000E026E000E036E7BEC1DF039
:1033A600000E016E000E026E000E036E89EC1DF01B
:1033B600000E05016A6F1200FC0E0301D96FDA696F
:1033C600040EDB6F000EDC6F000EDF6F000EE06F89
:1033D600000EE56F100EE76F000EEC6F050EEE6F38
:1033E600000EEF6F000EF06F000EF16F000EF26F21
:1033F600000EF46FA30EF56F540EF66F000EF76F06
:10340600000EF86F020EF96F000EFA6F940EF36F4E
:10341600B090A080760E016E3B0E026E000E036E1B
:103426009EEC1DF012005AC55EF55BC55FF5000EF9
:103436000501616F000E606F34EF1AF058C545F54F
:1034460059C546F55E0E476E050E486E5CC549F5D4
:103456005DC54AF53BEC13F0455005016027465023
:103466006123610078F5F6F461007CF5F7F4000E4F
:10347600F86E0800F5500009D8A444EF1AF046EF9C
:103486001AF021EF1AF060C558F561C559F512001A
:103496009F0E096EFF0E0A6E07C50BF508C50CF5E3
:1034A60009500B260A500C220C500AE11A0E0B5C2E
:1034B600D8A060EF1AF063EF1AF0010E64EF1AF06D
:1034C600000E0D6E0E6A0D500E10D8B46DEF1AF088
:1034D6006FEF1AF075EF1AF05F0E0714076E086AA1
:1034E60079EF1AF007C507F508C508F51200B8EC1C
:1034F6001DF0D3EC1CF0F8EC18F042EC1DF088EC53
:103506001CF0CBEC1AF0DFEC19F0AEEC1CF0F1EC91
:103516001AF034EC1DF0F3EC1BF0C1EC1CF05BEC84
:103526001CF05CEC1DF025EC1DF00DEC1CF09BEC8A
:103536001CF0A5EC1AF0A5EC1DF0A4EC19F097EC24
:103546001DF01200020E0001E86FE00EF96F030E87
:10355600FA6F000EFB6F040EF16F440EF06F840ECF
:10356600FD6F000EF86F020EF76F000EEF6F020E82
:10357600EE6F350EFF6F000EFE6FB89AB898B89EC4
:10358600B89CA89AA898A89EA89CC00EFC6F12008A
:10359600010E0001E86FE20EF96F030EFA6F000EDE
:1035A600FB6F030EF16FE00EF06F840EFD6F000EE1
:1035B600F86F020EF76F000EEF6F020EEE6F100E31
:1035C600FF6F000EFE6FB49AB498B49EB49CA49A92
:1035D600A498A49EA49CC00EFC6F1200000E0001CD
:1035E600E86F2E0EF96F030EFA6F000EFB6F000EDA
:1035F600F16F7D0EF06F000EFD6F000EF86F010E7D
:10360600F76F000EEF6F010EEE6F1B0EFF6F000ED1
:10361600FE6FB09AB098B09EB09CA09AA098A09E5B
:10362600A09CC00EFC6F1200000E0D6E27EF1BF063
:1036360008C50AF509C50BF50C6A0A50055E0B505C
:10364600065A0C50075A0D2A08C50AF509C50BF586
:103656000C6A0A50055C0B5006580C500758D8B037
:1036660037EF1BF039EF1BF01BEF1BF00D5012006C
:10367600A0A040EF1BF042EF1BF04DEF1BF0B0A0F7
:1036860047EF1BF049EF1BF04DEF1BF041EC1CF030
:103696005DEF1BF0A1A652EF1BF054EF1BF05DEFA0
:1036A6001BF0B1A659EF1BF05BEF1BF05DEF1BF0B3
:1036B60027EC1CF01100000E126E000E116E6FEF5B
:1036C6001BF010C503F5046A0EC505F50FC506F512
:1036D60059EC19F0114A122A11500C24D96E1250C5
:1036E6000D20DA6EDF50106E1050D8A47DEF1BF05F
:1036F6007FEF1BF064EF1BF012009F0E036EFF0EB0
:10370600046E200E0110056E000E0210066E0350A8
:1037160005260450062206500AE11A0E055CD8A0BA
:1037260097EF1BF09AEF1BF0010E9BEF1BF0000EBC
:10373600016E026A120001C503F502C504F5A6EF83
:103746001BF0014A022A610004F4D9F4610008F46E
:10375600DAF4DF50D8A4B2EF1BF0B4EF1BF0A4EFFD
:103766001BF00350015C016E04500258026E1200F9
:103776009F0E036EFF0E046E01C505F502C506F524
:10378600035005260450062206500AE11A0E055C6F
:10379600D8A0D0EF1BF0D3EF1BF0010ED4EF1BF037
:1037A600000E016E026A1200BF0E036EFF0E046E5B
:1037B60001C505F502C506F5035005260450062287
:1037C60006500AE11A0E055CD8A0ECEF1BF0EFEFED
:1037D6001BF0010EF0EF1BF0000E016E026A1200E4
:1037E600010E0001D56F000ED76F000ED86F000EC8
:1037F600D96F000EDA6F000EDB6F020EDC6F020E61
:10380600DD6F020EDE6F020EDF6F000ED46F800ECC
:10381600D66F1200000E0001D56F0A0ED76F2A0E62
:10382600D86F180ED96F2A0EDA6F2A0EDB6F0A0EC2
:10383600DC6F000EDD6F000EDE6F000EDF6F000E18
:10384600D46F860ED66F1200B1960501945195116C
:103856009611D8B431EF1CF033EF1CF040EF1CF09A
:1038660002D840EF1CF00500FA6E9451FD6E95519A
:10387600FE6E9651FF6EFA5012001200B0900501CE
:10388600975198119911D8B44BEF1CF04DEF1CF0DD
:103896005AEF1CF002D85AEF1CF00500FA6E975149
:1038A600FD6E9851FE6E9951FF6EFA50120012008D
:1038B600040E0301266F000E256F000E276FF10E12
:1038C600236F000E226FB196A186740E016E3B0E19
:1038D600026E000E036E90EC1DF0F00E0301246FD5
:1038E60012009C0E0501A26F050EA36F000E586E06
:1038F600000E596E9AC55AF59BC55BF5A20E5C6E15
:10390600050E5D6E16EC1AF01200010E0401566FDC
:10391600140E576F000E526F000E516F000E506F4F
:10392600000E556F0A0E546F710E536F568F1200AC
:10393600010E04014E6F010E4F6F000E4A6F000E0E
:10394600496F000E486F030E4D6F330E4C6F330EEA
:103956004B6F4E8F1200010E0401466F710E476FBA
:10396600000E426F000E416F010E406F000E456F54
:10397600000E446F000E436F468F1200800E030147
:103986000C6F4A0E0D6F000E0E6F000E0F6F070EB6
:10399600116F1F0E106F0B690A6909690D8F1200EE
:1039A600000E0001606F000E616F000E636F000E67
:1039B600646F000E656F000E666F000E676F000E77
:1039C600686F120001EE60F12B0EEE6AE806FDE16B
:1039D6000401080E5D6F000E5E6F000E5F6F000142
:1039E6001EEF17F0016E550E0001B46FAA0EB46FEC
:1039F600B491610004F4B8F0550EB46FAA0EB46F1A
:103A0600B4811200016E550E0001B46FAA0EB46F98
:103A1600B491610004F4B7F0550EB46FAA0EB46FFA
:103A2600B4811200016E550E0001B46FAA0EB46F78
:103A3600B491610004F4B6F0550EB46FAA0EB46FDB
:103A4600B4811200040E03013E6F030E3D6F120E89
:103A56003F6FA00E3B6F000E3A6FBD96C00E3C6FD7
:103A660012000C0E0301326FA50E316F010E336F7B
:103A76002F69000E2E6FB996800E306F1200620EFF
:103A86000001AD6F000EAF6F000EB36F080EB16F81
:103A9600000EB06F000EAC6F1200016EB2A256EFB0
:103AA6001DF058EF1DF051EF1DF0610004F4A3F274
:103AB6001200810E03011B6F9A0E196F000E186F0C
:103AC600B19E800E1A6F12000301E251046E036A62
:103AD600E1510324016E000E0420026E1200030160
:103AE6000351016E0451026E0551036E046A120001
:103AF60001C58EF502C58FF503C590F5120001C507
:103B060091F502C592F503C593F5120001C58BF533
:103B160002C58CF503C58DF5120001C594F502C5E5
:103B260095F503C596F51200550E0001B46FAA0E61
:103B3600B46FB481120001C597F502C598F503C5A7
:103B460099F51200A00E00017F6F330E7D6F1200F3
:103B5600026E025050EC1DF01200010E0501696F55
:103B66001200010E0501686F1200D69A12001200AB
:023B760012003B
:020000040020DA
:10000000FF0FFF0FFF0FFF0FFF0FFF0FFF0FFF0F80
:10001000FF0FFF0FFF0FFF0FFF0FFF0FFF0FFF0F70
:020000040030CA
:0A0000008CFFF7FF9FFFFFFFFFFFDB
:00000001FF
