:020000040000FA
:040000000DEF00F010
:0400080005EF1AF0F6
:06001800FF0077EF19F074
:10260000004D6561737572656420496E7075742044
:102610004672657175656E63793A2025756B487AE7
:102620000A0D004D6561737572656420496E7075A1
:1026300074204672657175656E63793A2025754818
:102640007A0A0D004E6577204E434F20496E637223
:0F265000656D656E743A20307825780A0D0000AC
:1026600065AF669365BF04D0655106E1640504E279
:10267000326A010E316E04D064C531F565C532F59C
:1026800062C53BF563C53CF566A904D0FE0E3B264A
:10269000FF0E3C2220C533F521C534F522C535F5A2
:1026A00023C536F524C537F525C538F526C539F5D2
:1026B00027C53AF5406A1F0E3F6E8A6B5ED03F0613
:1026C000D8A040060F0E33143D6E3E6A3EBE07D0C2
:1026D0003E5003E10A0E3D5C02E3570E01D0300E7E
:1026E0003D26000E3E22BF0E296E2A6828502B6E12
:1026F0002C6A8ED805E11A0E2B5C02E2010E01D085
:10270000000E2D6E2E6A2D502E1020E09F0E296E89
:102710002A68200E3D102B6E000E3E102C6E78D8CD
:1027200005E11A0E2B5C02E2010E01D0000E2F6EA5
:10273000306A2F5030100AE03DC507F53EC508F558
:102740003AEC18F007C53DF508C53EF55AD86100CA
:10275000F4F4DFF43106D8A032063B06D8A03C06DC
:10276000040E296ED8903A32393238323732363246
:10277000353234323332292EF5D740BE1DD0405089
:1027800003E1020E3F5C18E333503410351036106D
:102790003710381039103A1092E132BE04D032505E
:1027A0008EE131048CE23CBE07D03C5002E13B0498
:1027B00003E3050166B383D7050166A90DD03F0683
:1027C000D8A040061ED86100A0F4DFF43F06D8A0D0
:1027D000400617D8300EDF6E1EC513F51FC514F561
:1027E0006B0E3F24156E050E4020166E3BC517F587
:1027F0003CC518F500EC17F013C51EF514C51FF500
:1028000012006B0E3F24D96E050E4020DA6E1200C6
:1028100029502B262A502C222C5012008BD8250A06
:102820007EE161000CF5D9F4BCD8626B636B666B1A
:10283000676B646965697ED8750A22E161000CF5F1
:10284000D9F4610010F5DAF484D841C51EF542C50B
:102850001FF54CC520F54DC521F54EC522F54FC5D8
:1028600023F550C524F551C525F552C526F553C5A8
:1028700027F5DBEC14F01EC541F51FC542F512002B
:1028800059D8780A03E056D8580A31E161000CF5AE
:10289000D9F4610010F5DAF4DFC4F6F4BEEC17F0F9
:1028A0006100D4F34BF561000CF5D9F4610010F52B
:1028B000DAF44FD841C51EF542C51FF54CC520F5C9
:1028C0004DC521F54EC522F54FC523F550C524F55C
:1028D00051C525F552C526F553C527F54BC528F535
:1028E00030EC13F01EC541F51FC542F5120022D889
:1028F000250A0EE161000CF5D9F453D8046A250EBF
:10290000036E54D842EC17F0426A010E416E010C7E
:1029100061000CF5D9F445D8416A426A12000AD820
:10292000036E046A43D842EC17F061000CF5D9F449
:1029300038D8EAD761000CF5D9F4610010F5DAF463
:10294000DFC4F6F4260EF76E000EF86E0800F550A0
:102950001200DF2A610014F5D9F4610018F5DAF4E9
:1029600061007CF347F5020EDE2661007CF348F53A
:10297000000EDD2261001CF5D9F4610020F5DAF4C7
:10298000610078F349F5610074F34AF549C54CF5E7
:102990004AC54DF54E6A4F6A506A516A526A536A87
:1029A0001200610010F5DAF4DF2A120041C505F5C6
:1029B00042C506F5120065AF669365BF04D0655148
:1029C00006E1640504E2316A010E306E04D064C58C
:1029D00030F565C531F562C532F563C533F520C5FF
:1029E00034F521C535F522C536F523C537F524C59F
:1029F00038F525C539F526C53AF527C53BF53D6AB5
:102A00001F0E3C6E8A6B68D03C06D8A03D066B0E4C
:102A10003C24D96E050E3D20DA6E34C501F535C56E
:102A200002F536C503F537C504F538C505F539C5D2
:102A300006F53AC507F53BC508F50A0E096E0A6AA0
:102A40000B6A0C6A0D6A0E6A0F6A106A5FEC16F068
:102A500001C528F502C529F503C52AF504C52BF5DE
:102A600005C52CF506C52DF507C52EF508C52FF5AE
:102A70002850300FDF6E3006D8A031063206D8A0BD
:102A8000330634C501F535C502F536C503F537C53E
:102A900004F538C505F539C506F53AC507F53BC552
:102AA00008F50A0E096E0A6A0B6A0C6A0D6A0E6A4C
:102AB0000F6A106A9CEC15F001C534F502C535F5B6
:102AC00003C536F504C537F505C538F506C539F52E
:102AD00007C53AF508C53BF53C503D1018E03450A9
:102AE000351036103710381039103A103B108CE181
:102AF00031BE04D0315088E1300486E233BE07D0C5
:102B0000335002E1320403E3050166B37DD71EC5ED
:102B100013F51FC514F56B0E3C24156E050E3D20F4
:102B2000166E32C517F533C518F500EC17F013C54E
:102B30001EF514C51FF51200116A126A136A146A91
:102B4000156A166A176A186A09500A100B100C10D9
:102B50000D100E100F10101045E0010E196E0AD066
:102B6000D89009360A360B360C360D360E360F362F
:102B70001036192A10AEF4D7D89011361236133603
:102B8000143615361636173618360950015C0A50B9
:102B900002580B5003580C5004580D5005580E5055
:102BA00006580F5007581050085811E30950015E9D
:102BB0000A50025A0B50035A0C50045A0D50055A31
:102BC0000E50065A0F50075A1050085A1180D890CC
:102BD00010320F320E320D320C320B320A32093201
:102BE000192ECAD711C501F512C502F513C503F593
:102BF00014C504F515C505F516C506F517C507F581
:102C000018C508F5120071EC17F0000E42EC1AF02E
:102C1000010EB4EC19F0020EECEC19F00501696B31
:102C2000686BE00E016E340E026E000E036E59ECFE
:102C30001AF0DA0E016E340E026E000E036E52ECC4
:102C40001AF0D68E050169512CE0696B39EC1AF047
:102C5000045002E1030417E339EC1AF00150056E49
:102C600002C506F503C507F5030E096EE80E086EEA
:102C700090EC18F05F6E010E5A6E5FC55BF55C6AF2
:102C800087EC19F00ED0230E5A6E39EC1AF001C5FC
:102C90005BF502C55CF503C55DF504C55EF587EC23
:102CA00019F06851CFE0686B440E5A6E11EC1AF0BF
:102CB00001C55BF502C55CF587EC19F0C3D7095077
:102CC0000A100B100C100D100E100F1010103BE01E
:102CD000010E116E0AD0D89009360A360B360C3622
:102CE0000D360E360F361036112A10AEF4D70950B5
:102CF000015C0A5002580B5003580C5004580D50F8
:102D000005580E5006580F5007581050085810E339
:102D10000950015E0A50025A0B50035A0C50045AD3
:102D20000D50055A0E50065A0F50075A1050085AA7
:102D3000D89010320F320E320D320C320B320A3272
:102D40000932112ED4D701C501F502C502F503C51C
:102D500003F504C504F505C505F506C506F507C563
:102D600007F508C508F51200C26AC16ABE6A080EF6
:102D7000C36EBF6AC06A070ECA6EF60ECB6E7F0EB8
:102D8000C66EC768C868FD0EC96E04011869FC0EDE
:102D9000106F0869070E206FF50E286FDD0E006FAB
:102DA000196B296B216B096B016B116B0201896B2C
:102DB000886B876B866B0401226B2A6B026B0A6B34
:102DC000126B1A6B03690B6913691B69070E236F7A
:102DD0002B6904690C6914691C690F0E246F2C6936
:102DE000010E0201086F050E616F100E596F400E43
:102DF0001A6F110E5A6F200E296F290E726F290C4F
:102E0000050166A103D035D877EC18F018BE05D0BF
:102E100017C51CF518C51DF502D01C6A1D6A1A6A73
:102E20001B6A0BD0046A200E036E13C505F514C58A
:102E300006F542EC17F01A4A1B2A1C501A5C1B506C
:102E4000800A196E1D50800A1958ECE3050166B11D
:102E500003D00FD877EC18F015C501F516C502F5AB
:102E600004EC19F01C500124136E1D500220146E46
:102E7000120015C50CF516C50DF513C50EF514C5D4
:102E80000FF512000550061003E00550061003E18F
:102E9000035065EF1AF01ED8DE50DE1011E01AD88C
:102EA00010EE02F00550E1260650E222DE50E65C0C
:102EB000E650800A0B6EDE50800A0B58D8B0120024
:102EC00020EE02F00550D9260650DA22DE2A000E46
:102ED000DD22000C20EE04F00550D9260650DA223F
:102EE000120073EC1AF01CEC1AF0B4EC16F026EC9D
:102EF0001AF0A5EC19F015EC18F0C4EC17F05CEC26
:102F000018F0D1EC19F044EC19F0DFEC19F096EC64
:102F100019F01AEC19F030EC1AF0F9EC19F0C3ECD6
:102F200019F02FEC19F0C1EC18F060EC1AF0EDEC90
:102F300017F069EF1AF056C559F5606B616B13D045
:102F400054C541F555C542F5590E436E050E446E04
:102F500057C545F558C546F50EEC14F0415005012E
:102F6000602742506123610064F5F6F407D8F550FC
:102F7000E7E160C554F561C555F51200260EF76E00
:102F8000000EF86E08001200FB0E0301D96FDA691B
:102F9000050EDB6FDC6BDF6BE06BE56B100EE76F34
:102FA000EC6B050EEE6FEF6BF06BF16BF26BF46B8D
:102FB000A30EF56F540EF66FF76BF86B020EF96FF8
:102FC000FA6B940EF36FB090A080F20E016E340E87
:102FD000026E000E036E59EF1AF00201A56BA66B8C
:102FE000A76BA86BA96BAA6BA00EAB6F800EAC6F22
:102FF000AD6B220EAE6FAF6BB06BB16BB26BB36BE0
:10300000000E016A026A036A76EC1AF0000E016A89
:10301000026A036A75EC1AF0000E016A026A036A1A
:1030200077EC1AF005016A6B1200010E0001E86FDF
:10303000E20E18D8F16FE00E0CD8100EFF6FFE6B89
:10304000B49AB498B49EB49CA49AA498A49EA49C48
:103050000ED0F06F840EFD6FF86B020EF76FEF6B02
:10306000EE6F020CF96F030EFA6FFB6B030CC00ED0
:10307000FC6FC00C9F0E096E0A6807C50BF508C5EA
:103080000CF509500B260A500C220C5005E11A0EC3
:103090000B5C02E2010E01D0000E0D6E0E6A0D50A7
:1030A0000E1005E05F0E0714076E086A120007C5D0
:1030B00007F508C508F512000001E86B2E0E32EC8A
:1030C00018F0F16B7D0EF06FFD6BF86B010EF76F72
:1030D000EF6BEE6F1B0EFF6FFE6BB09AB098B09E59
:1030E000B09CA09AA098A09EA09C37EF18F0116AFF
:1030F000126A0BD010C503F5046A0EC505F50FC59D
:1031000006F542EC17F0114A122A11500C24D96E20
:1031100012500D20DA6EDF50106E1050EBE11200ED
:103120000D6A07D00FD8055E0B50065A0C50075A8F
:103130000D2A08D8055C0B5006580C500758F2E2CF
:103140000D50120008C50AF509C50BF50C6A0A50A6
:1031500012009F0E036E0468200E0110056E000E13
:103160000210066E0350052604500622065005E1A3
:103170001A0E055C02E2010E01D0000E016E026A19
:103180001200020EE86FE00E32EC18F0040EF16F40
:10319000440E29EC18F0350EFF6FFE6BB89AB89804
:1031A000B89EB89CA89AA898A89EA89C37EF18F03B
:1031B0009F0E036E046801C505F502C506F50350B0
:1031C000052604500622065005E11A0E055C02E2AF
:1031D000010E01D0000E016E026A1200BF0E036ED6
:1031E000046801C505F502C506F50350052604501F
:1031F0000622065005E11A0E055C02E2010E01D01E
:10320000000E016E026A120001C503F502C504F545
:1032100002D0014A022A610004F4D9F4610008F4E2
:10322000DAF4DF50F6E10350015C016E04500258FD
:10323000026E1200040E266F256B276BF10E236FB2
:10324000226BB196A186F00E016E340E026E000E56
:10325000036E52EC1AF0F00E0301246FF00C000123
:10326000D56B0A0ED76F2A0ED86F180ED96F2A0E9B
:10327000DA6FDB6F020EDC6FDD6B080EDE6FDF6B6B
:10328000D46B860ED66F860C010E0001D56FD76BFE
:10329000D86BD96BDA6BDB6B020EDC6FDD6FDE6F28
:1032A000DF6FD46B800ED66F800CB19605018B5109
:1032B0008C118D11D8B412000500FA6E8B51FD6E81
:1032C0008C51FE6E8D51FF6EFA501200B0900501C8
:1032D0008E518F119011D8B412000500FA6E8E51E4
:1032E000FD6E8F51FE6E9051FF6EFA50120001EE8E
:1032F00060F12B0EEE6AE806FDE10401080E5D6F39
:10330000000E5E6F000E5F6F000103EF16F05B0EA4
:103310000501936F050E946F546A556A5AC556F5A8
:10332000930E576E050E586E9BEF17F0800E0C6FC4
:103330004A0E0D6F0E6B0F6B070E116F1F0E106F85
:103340000B690A6909690D8F1200010E0401566F9D
:10335000140E576F526B516B506B556B0A0E546FB6
:10336000710E536F568F710C016E06D8610004F414
:10337000B7F0550EF4EF19F0550E0001B46FAA0E18
:10338000B46FB491AA0C010E04014E6F4F6F4A6BDB
:10339000496B486B030E4D6F330E4C6F4B6F4E8F66
:1033A000330C010E0401466F710E476F426B416B87
:1033B000010E406F456B446B436B468F12000C0E41
:1033C0000301326FA50E316F010E336F2F692E6B23
:1033D000B996800E306F800C016EBCEC19F0610064
:1033E00004F4B8F0550E00D0B46FAA0EB46FB481D7
:1033F000AA0C040E3E6F3D6F120E3F6F7B0E3B6FAB
:103400003A6BBD96800E3C6F800CA0B0B0A003D08C
:1034100066EC19F01100A1B6B1A6110055EC19F037
:1034200011000301E251046E036AE1510324016EAD
:10343000000E0420026E12000001606B616B636B72
:10344000646B656B666B676B686B1200620E0001E4
:10345000AD6FAF6BB36B080EB16FB06BAC6B12009E
:10346000810E1B6F9A0E196F186BB19E800E1A6F2A
:10347000800C03010351016E0451026E0551036E6D
:10348000046A1200016EBCEC19F0610004F4B6F09D
:10349000550EF4EF19F0016EB2A2FED7610004F4EC
:1034A000A3F2120001C58BF502C58CF503C58DF59D
:1034B000120001C58EF502C58FF503C590F5120007
:1034C000A00E7F6F330E7D6F330C026E02504BEFF8
:1034D0001AF0550E0001F4EF19F0010E696F010C9E
:1034E000010E686F010CD69A120012001200120031
:0434F00012001200B4
:020000040020DA
:10000000FF0FFF0FFF0FFF0FFF0FFF0FFF0FFF0F80
:10001000FF0FFF0FFF0FFF0FFF0FFF0FFF0FFF0F70
:020000040030CA
:0A0000008CFFF7FF9FFFFFFFFFFFDB
:00000001FF
