:020000040000FA
:040000000DEF00F010
:040008001AEF19F0E2
:06001800FF002BEF19F0C0
:10260000004E6577204E434F20496E6372656D65BD
:102610006E743A20307825780A0D0000050165BFF8
:1026200014EF13F016EF13F017EF13F0669365BF76
:1026300024EF13F0655106E16405D8B022EF13F0E2
:1026400024EF13F02AEF13F0000E366E010E356EF4
:102650002EEF13F064C535F565C536F562C537F55F
:1026600063C538F566A937EF13F039EF13F03DEF86
:1026700013F0FE0E3726FF0E382220C539F521C58E
:102680003AF522C53BF523C53CF524C53DF525C5E6
:102690003EF526C53FF527C540F5000E426E1F0EDC
:1026A000416E000E896F09EF14F04106D8A0420672
:1026B0000F0E3914436E446A44BE68EF13F0445061
:1026C00009E10A0E435CD8A068EF13F06AEF13F03B
:1026D00072EF13F0570E4324436E000E4420446EF5
:1026E00078EF13F0300E4324436E000E4420446E06
:1026F000BF0E296EFF0E2A6E28502B6E2C6A2950B1
:102700002B262A502C222C500AE11A0E2B5CD8A022
:102710008CEF13F08FEF13F0010E90EF13F0000E1B
:10272000316E326A31503210D8B499EF13F09BEF0A
:1027300013F0CBEF13F09F0E296EFF0E2A6E200EC2
:1027400043102B6E000E44102C6E29502B262A505D
:102750002C222C500AE11A0E2B5CD8A0B2EF13F0F9
:10276000B5EF13F0010EB6EF13F0000E336E346ABE
:1027700033503410D8B4BFEF13F0C1EF13F0CBEFE8
:1027800013F043C507F544C508F56DEC17F007C510
:1027900043F508C544F56A0E4124D96E050E422062
:1027A000DA6E61000CF5DFF43506D8A03606370680
:1027B000D8A0380639C529F53AC52AF53BC52BF509
:1027C0003CC52CF53DC52DF53EC52EF53FC52FF575
:1027D00040C530F5050EF6EF13F0D89030322F32A9
:1027E0002E322D322C322B322A322932E82EEDEFC6
:1027F00013F029C539F52AC53AF52BC53BF52CC58B
:102800003CF52DC53DF52EC53EF52FC53FF530C530
:1028100040F542BE15EF14F0425009E1020E415C52
:10282000D8A015EF14F017EF14F048EF14F039505A
:102830003A103B103C103D103E103F104010D8A401
:1028400024EF14F026EF14F055EF13F036BE33EFFB
:1028500014F0365006E13504D8B031EF14F033EF00
:1028600014F055EF13F038BE3EEF14F0385008E185
:102870003704D8A03EEF14F040EF14F048EF14F006
:10288000050166B346EF14F048EF14F055EF13F06E
:10289000050166A94EEF14F050EF14F067EF14F045
:1028A0004106D8A042066A0E4124D96E050E422088
:1028B000DA6E6100A0F4DFF44106D8A042066A0E89
:1028C0004124D96E050E4220DA6E300EDF6E1EC531
:1028D00013F51FC514F56A0E4124156E050E42202E
:1028E000166E37C517F538C518F58FEC15F013C5FA
:1028F0001EF514C51FF5120061001CF5D9F4610026
:1029000020F5DAF4DEC4F6F4DDC4F7F4000EF86E58
:102910000800F550250AD8A490EF14F092EF14F0B7
:102920006DEF15F061001CF5D9F4610020F5DAF4C3
:10293000DE2A000EDD22000E0501636F000E626FBD
:1029400062C566F563C567F56469656961001CF574
:10295000D9F4610020F5DAF4DEC4F6F4DDC4F7F44E
:10296000000EF86E0800F550780AD8B4BAEF14F0EB
:10297000BCEF14F0D2EF14F061001CF5D9F4610043
:1029800020F5DAF4DEC4F6F4DDC4F7F4000EF86ED8
:102990000800F550580AD8A4D0EF14F0D2EF14F084
:1029A0002FEF15F061001CF5D9F4610020F5DAF481
:1029B000DEC4F6F4DDC4F7F4000EF86E0800610022
:1029C000D4F357F561001CF5D9F4610020F5DAF471
:1029D000DE2A000EDD22610024F5D9F4610028F51D
:1029E000DAF461007CF34BF5020EDE2661007CF325
:1029F0004CF5000EDD2261002CF5D9F4610030F5B4
:102A0000DAF4610078F34DF5610074F34EF54DC5CD
:102A10004FF54EC550F5516A526A536A546A556A69
:102A2000566A45C51EF546C51FF54FC520F550C56C
:102A300021F551C522F552C523F553C524F554C5DA
:102A400025F555C526F556C527F557C528F50EECCD
:102A500013F01EC545F51FC546F58EEF15F0610054
:102A60001CF5D9F4610020F5DAF4DEC4F6F4DDC417
:102A7000F7F4000EF86E0800F550250AD8A443EFCD
:102A800015F045EF15F05EEF15F061001CF5D9F477
:102A9000610020F5DAF4DE2A000EDD22000E046E5D
:102AA000250E036E45C505F546C506F54CEC16F03A
:102AB000000E466E010E456E8EEF15F061001CF59E
:102AC000D9F4610020F5DAF4DE2A000EDD22000ED2
:102AD000466E000E456E8EEF15F061001CF5D9F4C0
:102AE000610020F5DAF4DEC4F6F4DDC4F7F4000E7C
:102AF000F86E0800F550036E046A45C505F546C535
:102B000006F54CEC16F061001CF5D9F4610020F5D7
:102B1000DAF4DE2A000EDD2258EF15F0120005016E
:102B200066A195EF15F097EF15F0A1EF15F015C51B
:102B30000CF516C50DF513C50EF514C50FF5E8EC2B
:102B400017F018BEA6EF15F0A8EF15F0AEEF15F0D0
:102B500017C51CF518C51DF5B2EF15F0000E1D6E5A
:102B6000000E1C6E000E1B6E000E1A6EC4EF15F0E8
:102B7000000E046E200E036E13C505F514C506F590
:102B80004CEC16F01A4A1B2A1C501A5C1B50800A87
:102B9000196E1D50800A1958D8A0D1EF15F0D3EF47
:102BA00015F0B8EF15F0050166B1D9EF15F0DBEFC0
:102BB00015F0E5EF15F015C50CF516C50DF513C5A7
:102BC0000EF514C50FF5E8EC17F015C501F516C59F
:102BD00002F528EC18F01C500124136E1D50022041
:102BE000146E1200000EC26E000EC16E000EBE6E9C
:102BF000080EC36E000EBF6E000EC06E070ECA6ECA
:102C0000F60ECB6E7F0EC66EC768C868FD0EC96E25
:102C10000401186910690869070E206FF50E286F06
:102C2000FD0E006F000E196F000E296F000E216F50
:102C3000000E096F000E016F000E116F000E0201F1
:102C4000896F000E886F000E876F000E866F000E72
:102C50000401226F000E2A6F000E026F000E0A6F31
:102C6000000E126F000E1A6F03690B6913691B695E
:102C7000070E236F2B6904690C6914691C690F0E18
:102C8000246F2C69010E0201086F400E1A6F200E8E
:102C9000296F290E726F120005500610D8B453EF39
:102CA00016F055EF16F05EEF16F005500610D8A49A
:102CB0005CEF16F05EEF16F063EF16F00350BDEC1C
:102CC00019F096EF16F020EE04F00550D9260650C4
:102CD000DA22DE50DE10D8B470EF16F072EF16F084
:102CE0008DEF16F020EE04F00550D9260650DA22BA
:102CF00010EE02F00550E1260650E222DE50E65CBE
:102D0000E650800A0B6EDE50800A0B58D8B08BEF6D
:102D100016F08DEF16F096EF16F020EE02F005504B
:102D2000D9260650DA22DE2A000EDD221200000E1D
:102D30000201A56F000EA66F000EA76F000EA86F10
:102D4000000EA96F000EAA6FA00EAB6F800EAC6FC5
:102D5000000EAD6F220EAE6F000EAF6F000EB06FA3
:102D6000000EB16F000EB26F000EB36F000E016E59
:102D7000000E026E000E036EA1EC19F0000E016E43
:102D8000000E026E000E036E9AEC19F0000E016E3A
:102D9000000E026E000E036EA8EC19F0000E050185
:102DA000696F1200FB0E0301D96FDA69050EDB6F44
:102DB000000EDC6F000EDF6F000EE06F000EE56F9F
:102DC000100EE76F000EEC6F050EEE6F000EEF6F4A
:102DD000000EF06F000EF16F000EF26F000EF46F38
:102DE000A30EF56F540EF66F000EF76F000EF86F1E
:102DF000020EF96F000EFA6F940EF36FB090A08080
:102E0000900E016E330E026E000E036EB6EC19F0DA
:102E100012005AC55EF55BC55FF5000E0501616FD6
:102E2000000E606F27EF17F058C545F559C546F5F8
:102E30005E0E476E050E486E5CC549F55DC54AF5E8
:102E40007CEC14F045500501602746506123610079
:102E500078F5F6F461007CF5F7F4000EF86E0800E2
:102E6000F5500009D8A437EF17F039EF17F014EF39
:102E700017F060C558F561C559F5120045EC18F01A
:102E8000000E0501686F000E4BEC19F0010E3BECD3
:102E900019F0840E016E330E026E000E036EB6EC56
:102EA00019F0D68E05016851D8B459EF17F05BEFD1
:102EB00017F052EF17F0000E686F010E966F260E96
:102EC000976F8FEC19F001C598F502C599F5CEEC16
:102ED00018F052EF17F00DEF00F09F0E096EFF0E85
:102EE0000A6E07C50BF508C50CF509500B260A50EC
:102EF0000C220C500AE11A0E0B5CD8A082EF17F0DE
:102F000085EF17F0010E86EF17F0000E0D6E0E6ABA
:102F10000D500E10D8B48FEF17F091EF17F097EF18
:102F200017F05F0E0714076E086A9BEF17F007C5CE
:102F300007F508C508F51200020E0001E86FE00E63
:102F4000F96F030EFA6F000EFB6F040EF16F440E63
:102F5000F06F840EFD6F000EF86F020EF76F000E1B
:102F6000EF6F020EEE6F350EFF6F000EFE6FB89A18
:102F7000B898B89EB89CA89AA898A89EA89CC00E7D
:102F8000FC6F1200010E0001E86FE20EF96F030EF4
:102F9000FA6F000EFB6F030EF16FE00EF06F840E00
:102FA000FD6F000EF86F020EF76F000EEF6F020E4E
:102FB000EE6F100EFF6F000EFE6FB49AB498B49EC1
:102FC000B49CA49AA498A49EA49CC00EFC6F12006A
:102FD000000E126E000E116EF9EF17F010C503F51A
:102FE000046A0EC505F50FC506F54CEC16F0114A3E
:102FF000122A11500C24D96E12500D20DA6EDF50B7
:10300000106E1050D8A407EF18F009EF18F0EEEF8B
:1030100017F012009F0E036EFF0E046E200E0110BB
:10302000056E000E0210066E03500526045006229F
:1030300006500AE11A0E055CD8A021EF18F024EF23
:1030400018F0010E25EF18F0000E016E026A120052
:1030500001C503F502C504F530EF18F0014A022A54
:10306000610004F4D9F4610008F4DAF4DF50D8A464
:103070003CEF18F03EEF18F02EEF18F00350015C13
:10308000016E04500258026E1200C6EC19F008ECF2
:1030900019F0F2EC15F06AEC19F05BEC19F09AEC0F
:1030A00018F0E2EC18F0C2EC17F09CEC17F0D2EC40
:1030B00016F0F5EC18F084EC19F097EC16F0AFEC84
:1030C00019F012009F0E036EFF0E046E01C505F588
:1030D00002C506F5035005260450062206500AE1F3
:1030E0001A0E055CD8A077EF18F07AEF18F0010EF1
:1030F0007BEF18F0000E016E026A1200BF0E036E25
:10310000FF0E046E01C505F502C506F50350052640
:103110000450062206500AE11A0E055CD8A093EF6F
:1031200018F096EF18F0010E97EF18F0000E016EF0
:10313000026A1200000E0001D56F0A0ED76F2A0E28
:10314000D86F180ED96F2A0EDA6F2A0EDB6F020EB7
:10315000DC6F000EDD6F080EDE6F000EDF6F000EFD
:10316000D46F860ED66F1200B09005019351941162
:103170009511D8B4BEEF18F0C0EF18F0CDEF18F0ED
:1031800002D8CDEF18F00500FA6E9351FD6E945100
:10319000FE6E9551FF6EFA5012001200980E050156
:1031A0009C6F050E9D6F000E586E000E596E96C5F1
:1031B0005AF597C55BF59C0E5C6E050E5D6E09ECCD
:1031C00017F01200010E04014E6F010E4F6F000E3A
:1031D0004A6F000E496F000E486F030E4D6F330E9D
:1031E0004C6F330E4B6F4E8F1200010E0401466F71
:1031F000710E476F000E426F000E416F010E406F5F
:10320000000E456F000E446F000E436F468F120094
:10321000000E0001606F000E616F000E636F000E04
:10322000646F000E656F000E666F000E676F000E14
:10323000686F1200A0A01FEF19F021EF19F02AEF1C
:1032400019F0B0A026EF19F028EF19F02AEF19F0C5
:10325000B4EC18F0110001EE60F12A0EEE6AE806F7
:10326000FDE10401080E5D6F000E5E6F000E5F6FE2
:1032700000013EEF17F0016E550E0001B46FAA0E6B
:10328000B46FB491610004F4B8F0550EB46FAA0E97
:10329000B46FB4811200016E550E0001B46FAA0E16
:1032A000B46FB491610004F4B7F0550EB46FAA0E78
:1032B000B46FB4811200040E03013E6F040E3D6F23
:1032C000120E3F6F7B0E3B6F000E3A6FBD96800E65
:1032D0003C6F1200620E0001AD6F000EAF6F000E6A
:1032E000B36F080EB16F000EB06F000EAC6F12001E
:1032F000016EB2A27EEF19F080EF19F079EF19F0AC
:10330000610004F4A3F21200810E03011B6F9A0EF8
:10331000196F000E186FB19E800E1A6F1200030114
:10332000E251046E036AE1510324016E000E042091
:10333000026E120001C58DF502C58EF503C58FF52D
:10334000120001C590F502C591F503C592F5120072
:1033500001C58AF502C58BF503C58CF51200550E23
:103360000001B46FAA0EB46FB481120001C593F5C9
:1033700002C594F503C595F51200026E025078EC73
:1033800019F01200010E0501686F1200D69A1200A2
:02339000120029
:020000040020DA
:10000000FF0FFF0FFF0FFF0FFF0FFF0FFF0FFF0F80
:10001000FF0FFF0FFF0FFF0FFF0FFF0FFF0FFF0F70
:020000040030CA
:0A0000008CFFF7FF9FFFFFFFFFFFDB
:00000001FF
