:020000040000FA
:040000000DEF00F010
:040008007FEF17F07F
:06001800FF00CFEF16F01F
:10260000004E6577204E434F20496E6372656D65BD
:102610006E743A20307825780A0D000065AF5D921F
:1026200065BF04D0655106E1640504E2326A010E1B
:10263000316E04D064C531F565C532F562C53BF530
:1026400063C53CF55DA804D0FE0E3B26FF0E3C2280
:1026500020C533F521C534F522C535F523C536F53A
:1026600024C537F525C538F526C539F527C53AF50A
:10267000406A1F0E3F6E866B5ED03F06D8A04006B4
:102680000F0E33143D6E3E6A3EBE07D03E5003E14E
:102690000A0E3D5C02E3570E01D0300E3D26000EBF
:1026A0003E22BF0E296E2A6828502B6E2C6A8CD8C9
:1026B00005E11A0E2B5C02E2010E01D0000E2D6E18
:1026C0002E6A2D502E1020E09F0E296E2A68200EB3
:1026D0003D102B6E000E3E102C6E76D805E11A0EC2
:1026E0002B5C02E2010E01D0000E2F6E306A2F50DB
:1026F00030100AE03DC507F53EC508F5D2EC15F0EF
:1027000007C53DF508C53EF558D86100F4F4DFF47F
:102710003106D8A032063B06D8A03C06040E296E2E
:10272000D8903A3239323832373236323532343262
:102730003332292EF5D740BE1CD0405003E1020EA3
:102740003F5C17E333503410351036103710381013
:1027500039103A1092E132BE04D032508EE1310489
:102760008CE23CBE06D03C5002E13B0402E35DB289
:1027700084D75DA80DD03F06D8A040061ED86100C2
:10278000A0F4DFF43F06D8A0400617D8300EDF6E65
:102790001EC513F51FC514F5670E3F24156E050EF3
:1027A0004020166E3BC517F53CC518F5C4EC14F077
:1027B00013C51EF514C51FF51200670E3F24D96E10
:1027C000050E4020DA6E120029502B262A502C22AA
:1027D0002C5012007FD885D8250A72E17BD8DF2AD9
:1027E000626B636B5D6A5E6A6469656973D879D888
:1027F000780A04E06FD875D8580A4DE16BD8DFC469
:10280000F6F456EC15F06100D4F353F563D8DF2AE3
:10281000610014F5D9F4610018F5DAF461007CF375
:1028200047F5020EDE2661007CF348F5000EDD223E
:1028300061001CF5D9F4610020F5DAF4610078F349
:1028400049F5610074F34AF549C54BF54AC54CF5A5
:102850004D6A4E6A4F6A506A516A526A41C51EF506
:1028600042C51FF54BC520F54CC521F54DC522F5D8
:102870004EC523F54FC524F550C525F551C526F5A0
:1028800052C527F553C528F50EEC13F01EC541F5CA
:102890001FC542F512001ED824D8250A0CE11AD80B
:1028A000DF2A046A250E036E25D804EC15F0426A6F
:1028B000010E416E010C0ED8DF2A416A426A1200F5
:1028C00009D80FD8036E046A15D804EC15F002D8A5
:1028D000DF2AEDD761000CF5D9F4610010F5DAF4C8
:1028E0001200DFC4F6F4260EF76E000EF86E080034
:1028F000F550120041C505F542C506F51200C26A41
:10290000C16ABE6A080EC36EBF6AC06A070ECA6E8D
:10291000F60ECB6E7F0EC66EC768C868FD0EC96E18
:102920000401186910690869070E206FF50E286FF9
:10293000FD0E006F196B296B216B096B016B116B1D
:102940000201896B886B876B866B0401226B2A6B93
:10295000026B0A6B126B1A6B03690B6913691B69B3
:10296000070E236F2B6904690C6914691C690F0E2B
:10297000246F2C69010E0201086F400E1A6F200EA1
:10298000296F290E726F290C5DA003D034D830EC6A
:1029900016F018BE05D017C51CF518C51DF502D0D8
:1029A0001C6A1D6A1A6A1B6A0BD0046A200E036E29
:1029B00013C505F514C506F504EC15F01A4A1B2AD3
:1029C0001C501A5C1B50800A196E1D50800A195841
:1029D000ECE35DB003D00FD830EC16F015C501F56F
:1029E00016C502F58EEC16F01C500124136E1D5016
:1029F0000220146E120015C50CF516C50DF513C591
:102A00000EF514C50FF512000550061003E0055031
:102A1000061003E1035085EF17F01ED8DE50DE10DC
:102A200011E01AD810EE02F00550E1260650E2221D
:102A3000DE50E65CE650800A0B6EDE50800A0B58D2
:102A4000D8B0120020EE02F00550D9260650DA2246
:102A5000DE2A000EDD22000C20EE04F00550D926FF
:102A60000650DA22120056C559F5606B616B13D01F
:102A700054C541F555C542F5590E436E050E446ED9
:102A800057C545F558C546F5EAEC13F04150050128
:102A9000602742506123610064F5F6F407D8F550D1
:102AA000E7E160C554F561C555F51200260EF76ED5
:102AB000000EF86E08001200FB0E0301D96FDA69F0
:102AC000050EDB6FDC6BDF6BE06BE56B100EE76F09
:102AD000EC6B050EEE6FEF6BF06BF16BF26BF46B62
:102AE000A30EF56F540EF66FF76BF86B020EF96FCD
:102AF000FA6B940EF36FB090A0802A0E016E2F0E29
:102B0000026E000E036E78EF17F00201A56BA66B44
:102B1000A76BA86BA96BAA6BA00EAB6F800EAC6FF6
:102B2000AD6B220EAE6FAF6BB06BB16BB26BB36BB4
:102B3000000E016A026A036A93EC17F0000E016A44
:102B4000026A036A92EC17F0000E016A026A036AD5
:102B500094EC17F00501666B1200010E0001E86F9E
:102B6000E20E18D8F16FE00E0CD8100EFF6FFE6B5E
:102B7000B49AB498B49EB49CA49AA498A49EA49C1D
:102B80000ED0F06F840EFD6FF86B020EF76FEF6BD7
:102B9000EE6F020CF96F030EFA6FFB6B030CC00EA5
:102BA000FC6FC00C9F0E096E0A6807C50BF508C5BF
:102BB0000CF509500B260A500C220C5005E11A0E98
:102BC0000B5C02E2010E01D0000E0D6E0E6A0D507C
:102BD0000E1005E05F0E0714076E086A120007C5A5
:102BE00007F508C508F5120014EC16F05F6A000E30
:102BF0002DEC17F0010E02EC17F01A0E016E2F0EDD
:102C0000026E000E036E78EC17F0D68E5F50FEE079
:102C10005F6A010E5A6E48EC17F001C55BF502C5FC
:102C20005CF5F3EC16F0F2D790EC17F05DEC17F0D2
:102C30007FEC14F067EC17F03BEC17F0BAEC16F0F1
:102C400011EC17F0ADEC15F061EC16F05CEC15F042
:102C50001FEC17F053EC17F085EC15F089EF17F027
:102C6000116A126A0BD010C503F5046A0EC505F58A
:102C70000FC506F504EC15F0114A122A11500C2468
:102C8000D96E12500D20DA6EDF50106E1050EBE14D
:102C900012009F0E036E0468200E0110056E000ED8
:102CA0000210066E0350052604500622065005E168
:102CB0001A0E055C02E2010E01D0000E016E026ADE
:102CC0001200020EE86FE00ECAEC15F0040EF16F70
:102CD000440EC1EC15F0350EFF6FFE6BB89AB89834
:102CE000B89EB89CA89AA898A89EA89CCFEF15F06B
:102CF0009F0E036E046801C505F502C506F5035075
:102D0000052604500622065005E11A0E055C02E273
:102D1000010E01D0000E016E026A120001C503F51A
:102D200002C504F502D0014A022A610004F4D9F474
:102D3000610008F4DAF4DF50F6E10350015C016E43
:102D400004500258026E1200BF0E036E046801C5E3
:102D500005F502C506F50350052604500622065067
:102D600005E11A0E055C02E2010E01D0000E016EB3
:102D7000026A12000001D56B0A0ED76F2A0ED86FB7
:102D8000180ED96F2A0EDA6FDB6F020EDC6FDD6B67
:102D9000080EDE6FDF6BD46B860ED66F860C01EEED
:102DA00060F1270EEE6AE806FDE15F6A5E6A5D6A21
:102DB0000401080E5D6F000E5E6F000E5F6F000174
:102DC000F4EF15F0B09005018B518C118D11D8B432
:102DD00012000500FA6E8B51FD6E8C51FE6E8D5106
:102DE000FF6EFA5012005B0E0501896F050E8A6FA7
:102DF000546A556A5AC556F5890E576E050E586EB7
:102E000033EF15F0016E07D8B491610004F4B8F007
:102E1000550E36EF17F0550E0001B46FAA0EB46FC1
:102E2000AA0C010E04014E6F4F6F4A6B496B486B41
:102E3000030E4D6F330E4C6F4B6F4E8F330C010EE4
:102E40000401466F710E476F426B416B010E406F7C
:102E5000456B446B436B468F1200016E0BEC17F011
:102E6000B491610004F4B7F0550E00D0B46FAA0E0F
:102E7000B46FB481AA0C040E03013E6F3D6F120EB5
:102E80003F6F7B0E3B6F3A6BBD96800E3C6F800CA4
:102E90000301E251046E036AE1510324016E000E46
:102EA0000420026E1200810E03011B6F9A0E196F2F
:102EB000186BB19E800E1A6F800C0001606B616B05
:102EC000636B646B656B666B676B686B1200620E9D
:102ED0000001AD6FAF6BB36B080EB16FB06BAC6B35
:102EE0001200016EB2A2FED7610004F4A3F2120038
:102EF00001C58BF502C58CF503C58DF51200A0B098
:102F0000B0A01100E2EC16F01100026E025071EF59
:102F100017F00BEC17F0B481AA0C010E5F6E010CD8
:0C2F2000D69A12001200120012001200DB
:020000040020DA
:10000000FF0FFF0FFF0FFF0FFF0FFF0FFF0FFF0F80
:10001000FF0FFF0FFF0FFF0FFF0FFF0FFF0FFF0F70
:020000040030CA
:0A0000008CFFF7FF9FFFFFFFFFFFDB
:00000001FF
