:020000040000FA
:040000000DEF00F010
:0400080021EF19F0DB
:06001800FF0097EF18F055
:10260000004D6561737572656420496E7075742044
:102610004672657175656E63793A2025756B487AE7
:102620000A0D004D6561737572656420496E7075A1
:1026300074204672657175656E63793A2025754818
:102640007A0A0D00544D52342044415441203D201B
:10265000307825780A0D00444143204441544120FC
:102660003D20307825780A0D000065AF669365BF80
:1026700004D0655106E1640504E2326A010E316E50
:1026800004D064C531F565C532F562C53BF563C557
:102690003CF566A904D0FE0E3B26FF0E3C2220C569
:1026A00033F521C534F522C535F523C536F524C5E6
:1026B00037F525C538F526C539F527C53AF5406AF9
:1026C0001F0E3F6E896B5ED03F06D8A040060F0EEE
:1026D00033143D6E3E6A3EBE07D03E5003E10A0E03
:1026E0003D5C02E3570E01D0300E3D26000E3E2227
:1026F000BF0E296E2A6828502B6E2C6A8ED805E1F1
:102700001A0E2B5C02E2010E01D0000E2D6E2E6A15
:102710002D502E1020E09F0E296E2A68200E3D10AD
:102720002B6E000E3E102C6E78D805E11A0E2B5C35
:1027300002E2010E01D0000E2F6E306A2F503010D1
:102740000AE03DC507F53EC508F565EC17F007C57D
:102750003DF508C53EF55AD86100F4F4DFF43106C2
:10276000D8A032063B06D8A03C06040E296ED890AD
:102770003A32393238323732363235323432333215
:10278000292EF5D740BE1DD0405003E1020E3F5C1C
:1027900018E3335034103510361037103810391014
:1027A0003A1092E132BE04D032508EE131048CE214
:1027B0003CBE07D03C5002E13B0403E3050166B395
:1027C00083D7050166A90DD03F06D8A040061ED8C4
:1027D0006100A0F4DFF43F06D8A0400617D8300E01
:1027E000DF6E1EC513F51FC514F56A0E3F24156E66
:1027F000050E4020166E3BC517F53CC518F5A3EC39
:1028000016F013C51EF514C51FF512006A0E3F24FD
:10281000D96E050E4020DA6E120029502B262A5060
:102820002C222C5012008BD8250A7EE161000CF579
:10283000D9F4BCD8626B636B666B676B646965695E
:102840007ED8750A22E161000CF5D9F4610010F51B
:10285000DAF484D841C51EF542C51FF54CC520F5F4
:102860004DC521F54EC522F54FC523F550C524F5BC
:1028700051C525F552C526F553C527F5E0EC14F0F2
:102880001EC541F51FC542F5120059D8780A03E06C
:1028900056D8580A31E161000CF5D9F4610010F501
:1028A000DAF4DFC4F6F437EC17F06100D4F34BF53B
:1028B00061000CF5D9F4610010F5DAF44FD841C588
:1028C0001EF542C51FF54CC520F54DC521F54EC579
:1028D00022F54FC523F550C524F551C525F552C540
:1028E00026F553C527F54BC528F535EC13F01EC565
:1028F00041F51FC542F5120022D8250A0EE16100FC
:102900000CF5D9F453D8046A250E036E54D8E5ECBF
:1029100016F0426A010E416E010C61000CF5D9F40B
:1029200045D8416A426A12000AD8036E046A43D845
:10293000E5EC16F061000CF5D9F438D8EAD761005F
:102940000CF5D9F4610010F5DAF4DFC4F6F4260EC4
:10295000F76E000EF86E0800F5501200DF2A6100D5
:1029600014F5D9F4610018F5DAF461007CF347F549
:10297000020EDE2661007CF348F5000EDD226100C8
:102980001CF5D9F4610020F5DAF4610078F349F51B
:10299000610074F34AF549C54CF54AC54DF54E6AD8
:1029A0004F6A506A516A526A536A1200610010F508
:1029B000DAF4DF2A120041C505F542C506F512001A
:1029C00065AF669365BF04D0655106E1640504E216
:1029D000316A010E306E04D064C530F565C531F53D
:1029E00062C532F563C533F520C534F521C535F52B
:1029F00022C536F523C537F524C538F525C539F583
:102A000026C53AF527C53BF53D6A1F0E3C6E896B1E
:102A100068D03C06D8A03D066A0E3C24D96E050E4F
:102A20003D20DA6E34C501F535C502F536C503F52E
:102A300037C504F538C505F539C506F53AC507F5B6
:102A40003BC508F50A0E096E0A6A0B6A0C6A0D6A24
:102A50000E6A0F6A106A08EC16F001C528F502C567
:102A600029F503C52AF504C52BF505C52CF506C5C2
:102A70002DF507C52EF508C52FF52850300FDF6E50
:102A80003006D8A031063206D8A0330634C501F589
:102A900035C502F536C503F537C504F538C505F566
:102AA00039C506F53AC507F53BC508F50A0E096EA6
:102AB0000A6A0B6A0C6A0D6A0E6A0F6A106AA1EC48
:102AC00015F001C534F502C535F503C536F504C565
:102AD00037F505C538F506C539F507C53AF508C512
:102AE0003BF53C503D1018E034503510361037108F
:102AF000381039103A103B108CE131BE04D03150FF
:102B000088E1300486E233BE07D0335002E132045C
:102B100003E3050166B37DD71EC513F51FC514F584
:102B20006A0E3C24156E050E3D20166E32C517F553
:102B300033C518F5A3EC16F013C51EF514C51FF523
:102B40001200116A126A136A146A156A166A176A01
:102B5000186A09500A100B100C100D100E100F10EF
:102B6000101045E0010E196E0AD0D89009360A36C9
:102B70000B360C360D360E360F361036192A10AEBF
:102B8000F4D7D89011361236133614361536163659
:102B9000173618360950015C0A5002580B5003587A
:102BA0000C5004580D5005580E5006580F50075839
:102BB0001050085811E30950015E0A50025A0B5098
:102BC000035A0C50045A0D50055A0E50065A0F5015
:102BD000075A1050085A1180D89010320F320E3216
:102BE0000D320C320B320A320932192ECAD711C5F6
:102BF00001F512C502F513C503F514C504F515C595
:102C000005F516C506F517C507F518C508F5120030
:102C100009500A100B100C100D100E100F10101090
:102C20003BE0010E116E0AD0D89009360A360B36F9
:102C30000C360D360E360F361036112A10AEF4D77C
:102C40000950015C0A5002580B5003580C500458AC
:102C50000D5005580E5006580F5007581050085880
:102C600010E30950015E0A50025A0B50035A0C50EF
:102C7000045A0D50055A0E50065A0F50075A10505C
:102C8000085AD89010320F320E320D320C320B32FD
:102C90000A320932112ED4D701C501F502C502F559
:102CA00003C503F504C504F505C505F506C506F518
:102CB00007C507F508C508F51200C26AC16ABE6AF1
:102CC000C36ABF6AC06A070ECA6EFE0ECB6E3F0EA5
:102CD000C66EC768C868C96804011869EE0E106F2F
:102CE0000869070E206FFD0E286FDF0E006F196B4D
:102CF000296B216B096B016B116B0201896B886B6E
:102D0000876B866B0401226B2A6B026B0A6B126B5A
:102D10001A6B03690B6913691B69070E236F2B6913
:102D200004690C6914691C690F0E246F2C69050E67
:102D30000201616F100E596F140E5A6F200E296F29
:102D4000290E726F290C050166A103D035D8BFEC9E
:102D500017F018BE05D017C51CF518C51DF502D013
:102D60001C6A1D6A1A6A1B6A0BD0046A200E036E65
:102D700013C505F514C506F5E5EC16F01A4A1B2A2D
:102D80001C501A5C1B50800A196E1D50800A19587D
:102D9000ECE3050166B103D00FD8BFEC17F015C501
:102DA00001F516C502F535EC18F01C500124136E20
:102DB0001D500220146E120015C50CF516C50DF538
:102DC00013C50EF514C50FF512000550061003E0EB
:102DD0000550061003E1035027EF19F01ED8DE500E
:102DE000DE1011E01AD810EE02F00550E126065070
:102DF000E222DE50E65CE650800A0B6EDE50800A6E
:102E00000B58D8B0120020EE02F00550D92606501B
:102E1000DA22DE2A000EDD22000C20EE04F005503E
:102E2000D9260650DA22120056C559F5606B616B3F
:102E300013D054C541F555C542F5590E436E050EE4
:102E4000446E57C545F558C546F513EC14F041508E
:102E50000501602742506123610064F5F6F407D84C
:102E6000F550E7E160C554F561C555F51200260E31
:102E7000F76E000EF86E080012000201A56BA66B3B
:102E8000A76BA86BA96BAA6BA00EAB6F800EAC6F83
:102E9000AD6B220EAE6FAF6BB06BB16BB26BB36B41
:102EA000000E016A026A036A38EC19F0000E016A2A
:102EB000026A036A37EC19F0000E016A026A036ABB
:102EC00039EC19F00501696B12009F0E096E0A6852
:102ED00007C50BF508C50CF509500B260A500C2246
:102EE0000C5005E11A0E0B5C02E2010E01D0000E3F
:102EF0000D6E0E6A0D500E1005E05F0E0714076E82
:102F0000086A120007C507F508C508F51200000198
:102F1000E86B2E0EF96F030EFA6FFB6BF16B7D0EF3
:102F2000F06FFD6BF86B010EF76FEF6BEE6F1B0E22
:102F3000FF6FFE6BB09AB098B09EB09CA09AA0981C
:102F4000A09EA09CC00EFC6FC00C35EC19F0F0ECFC
:102F500018F05DEC16F0FAEC18F0C6EC18F087ECFF
:102F600017F0A7EC18F0E3EC18F0D5EC18F01BEC18
:102F700019F04BEC18F03DEC17F02BEF19F0116A3B
:102F8000126A0BD010C503F5046A0EC505F50FC50E
:102F900006F5E5EC16F0114A122A11500C24D96EF0
:102FA00012500D20DA6EDF50106E1050EBE112005F
:102FB0000D6A07D00FD8055E0B50065A0C50075A01
:102FC0000D2A08D8055C0B5006580C500758F2E241
:102FD0000D50120008C50AF509C50BF50C6A0A5018
:102FE00012009F0E036E0468200E0110056E000E85
:102FF0000210066E0350052604500622065005E115
:103000001A0E055C02E2010E01D0000E016E026A8A
:1030100012009F0E036E046801C505F502C506F592
:103020000350052604500622065005E11A0E055CE1
:1030300002E2010E01D0000E016E026A1200BF0E04
:10304000036E046801C505F502C506F503500526A3
:1030500004500622065005E11A0E055C02E2010E3C
:1030600001D0000E016E026A120001C503F502C50F
:1030700004F502D0014A022A610004F4D9F4610087
:1030800008F4DAF4DF50F6E10350015C016E0450FD
:103090000258026E1200040E0301266F256B276B87
:1030A000F10E236F226BB196A186740E016E320E63
:1030B000026E000E036E14EC19F0F00E0301246F83
:1030C000F00CA5EC17F0000E75EC18F00501686B1C
:1030D000640E016E320E026E000E036E14EC19F0D7
:1030E000D68E2FEC19F000F0FED7016E550E0001C0
:1030F000B46FAA0EB46FB491610004F4B6F0550E2B
:1031000000D0B46FAA0EB46FB481AA0CB1960501B9
:103110008E518F119011D8B412000500FA6E8E51A5
:10312000FD6E8F51FE6E9051FF6EFA50120001EE4F
:1031300060F12A0EEE6AE806FDE10401080E5D6FFB
:10314000000E5E6F000E5F6F000161EF18F0010E60
:10315000D56FD76BD86BD96BDA6BDB6B020EDC6F7C
:10316000DD6FDE6FDF6FD46B800ED66F800C5B0E71
:1031700005018C6F050E8D6F546A556A5AC556F558
:103180008C0E576E050E586E14EF17F0010E0401E9
:10319000566F140E576F526B516B506B556B0A0E76
:1031A000546F710E536F568F710C800E0C6F4A0E58
:1031B0000D6F0E6B0F6B070E116F1F0E106F0B69EB
:1031C0000A69096912000C0E0301326FA50E316FF6
:1031D000010E336F2F692E6BB996800E306F800C05
:1031E0000001606B616B636B646B656B666B676B37
:1031F000686B1200620E0001AD6FAF6BB36B080E0F
:10320000B16FB06BAC6B120003010351016E04513E
:10321000026E0551036E046A1200016EB2A2FED75F
:10322000610004F4A3F2120001C58EF502C58FF50A
:1032300003C590F51200A00E00017F6F330E7D6F65
:10324000330CA1B6B1A6110086EC18F01100026E85
:1032500002500DEF19F0550E000181EF18F0030137
:103260000D8F1200010E686F010CD69A1200120029
:0632700012001200120022
:020000040020DA
:10000000FF0FFF0FFF0FFF0FFF0FFF0FFF0FFF0F80
:10001000FF0FFF0FFF0FFF0FFF0FFF0FFF0FFF0F70
:020000040030CA
:0A0000008CFDF7FF9FFFFFFFFFFFDD
:00000001FF
