:020000040000FA
:040000000DEF00F010
:040008002EEF19F0CE
:06001800FF000CEF19F0DF
:10260000004D6561737572656420496E7075742044
:102610004672657175656E63793A2025756B487AE7
:102620000A0D004D6561737572656420496E7075A1
:1026300074204672657175656E63793A2025754818
:102640007A0A0D004F70656E2057697265204465E7
:0B2650007465637465642E0A0D0000C1
:10265C00050165BF34EF13F036EF13F037EF13F0CD
:10266C00669365BF44EF13F0655106E16405D8B07D
:10267C0042EF13F044EF13F04AEF13F0000E316EFB
:10268C00010E306E4EEF13F064C530F565C531F5B3
:10269C0062C532F563C533F520C534F521C535F572
:1026AC0022C536F523C537F524C538F525C539F5CA
:1026BC0026C53AF527C53BF5000E3D6E1F0E3C6E48
:1026CC00000E886FE0EF13F03C06D8A03D06690EB3
:1026DC003C24D96E050E3D20DA6E34C501F535C5A6
:1026EC0002F536C503F537C504F538C505F539C50A
:1026FC0006F53AC507F53BC508F50A0E096E000E3E
:10270C000A6E000E0B6E000E0C6E000E0D6E000E9F
:10271C000E6E000E0F6E000E106E01EC16F001C561
:10272C0028F502C529F503C52AF504C52BF505C501
:10273C002CF506C52DF507C52EF508C52FF5285027
:10274C00300FDF6E3006D8A031063206D8A0330623
:10275C0034C501F535C502F536C503F537C504F5A5
:10276C0038C505F539C506F53AC507F53BC508F575
:10277C000A0E096E000E0A6E000E0B6E000E0C6E29
:10278C00000E0D6E000E0E6E000E0F6E000E106E13
:10279C001AEC15F001C534F502C535F503C536F54F
:1027AC0004C537F505C538F506C539F507C53AF53D
:1027BC0008C53BF53C503D10D8B4E7EF13F0E9EFFA
:1027CC0013F01AEF14F0345035103610371038104F
:1027DC0039103A103B10D8A4F6EF13F0F8EF13F0C1
:1027EC006AEF13F031BE05EF14F0315006E13004FE
:1027FC00D8B003EF14F005EF14F06AEF13F033BE0A
:10280C0010EF14F0335008E13204D8A010EF14F09C
:10281C0012EF14F01AEF14F0050166B318EF14F070
:10282C001AEF14F06AEF13F01EC513F51FC514F55B
:10283C00690E3C24156E050E3D20166E32C517F53B
:10284C0033C518F569EC16F013C51EF514C51FF544
:10285C001200610000F5D9F4610004F5DAF4DEC46D
:10286C00F6F4DDC4F7F4000EF86E0800F550250AF6
:10287C00D8A443EF14F045EF14F0F8EF14F0610016
:10288C0000F5D9F4610004F5DAF4DE2A000EDD223D
:10289C00000E0501636F000E626F62C566F563C5BD
:1028AC0067F564696569610000F5D9F4610004F5A8
:1028BC00DAF4DEC4F6F4DDC4F7F4000EF86E0800AA
:1028CC00F550750AD8A46DEF14F06FEF14F0BAEF51
:1028DC0014F0610000F5D9F4610004F5DAF4DE2A95
:1028EC00000EDD22610008F5D9F461000CF5DAF474
:1028FC0061007CF344F5020EDE2661007CF345F5A5
:10290C00000EDD22610010F5D9F4610014F5DAF443
:10291C00610078F346F5610074F347F546C548F558
:10292C0047C549F54A6A4B6A4C6A4D6A4E6A4F6A0A
:10293C003EC51EF53FC51FF548C520F549C521F517
:10294C004AC522F54BC523F54CC524F54DC525F5D7
:10295C004EC526F54FC527F52EEC13F01EC53EF5DA
:10296C001FC53FF519EF15F0610000F5D9F46100B2
:10297C0004F5DAF4DEC4F6F4DDC4F7F4000EF86EF8
:10298C000800F550250AD8A4CEEF14F0D0EF14F0BF
:10299C00E9EF14F0610000F5D9F4610004F5DAF404
:1029AC00DE2A000EDD22000E046E250E036E3EC5DF
:1029BC0005F53FC506F528EC17F0000E3F6E010E2D
:1029CC003E6E19EF15F0610000F5D9F4610004F5C5
:1029DC00DAF4DE2A000EDD22000E3F6E000E3E6E93
:1029EC0019EF15F0610000F5D9F4610004F5DAF483
:1029FC00DEC4F6F4DDC4F7F4000EF86E0800F550F2
:102A0C00036E046A3EC505F53FC506F528EC17F0C4
:102A1C00610000F5D9F4610004F5DAF4DE2A000E49
:102A2C00DD22E3EF14F0120021EE11F1070EDE6A45
:102A3C00E806FDE209500A100B100C100D100E10D8
:102A4C000F101010D8B42DEF15F02FEF15F081EFFB
:102A5C0015F0010E196E3DEF15F0D89009360A36B7
:102A6C000B360C360D360E360F361036192A10AEC4
:102A7C0042EF15F044EF15F033EF15F0D890113606
:102A8C0012361336143615361636173618360950D4
:102A9C00015C0A5002580B5003580C5004580D504E
:102AAC0005580E5006580F50075810500858D8A00B
:102ABC0062EF15F064EF15F075EF15F00950015E3B
:102ACC000A50025A0B50035A0C50045A0D50055A16
:102ADC000E50065A0F50075A1050085A1180D890B1
:102AEC0010320F320E320D320C320B320A320932E6
:102AFC00192E44EF15F011C501F512C502F513C5D9
:102B0C0003F514C504F515C505F516C506F517C569
:102B1C0007F518C508F512006BEC18F0000E3FEC29
:102B2C0019F0000E0501686F5C0E016E330E026E1B
:102B3C00000E036E95EC19F0D68EB2EC19F005016F
:102B4C006851D8B4ACEF15F0AEEF15F0A5EF15F059
:102B5C00000E686F77EC19F0045008E10304D8A05C
:102B6C00BAEF15F0BCEF15F0D6EF15F077EC19F0C5
:102B7C000150056E02C506F503C507F5030E096E77
:102B8C00E80E086E08EC18F05E6E010E586E260EFC
:102B9C00596E5EC55AF55B6AD3EC18F0A5EF15F0CB
:102BAC0077EC19F004500310021009E1060E015CD9
:102BBC00D8A0E3EF15F0E5EF15F0F7EF15F0230EC5
:102BCC00586E260E596E77EC19F001C55AF502C5F0
:102BDC005BF503C55CF504C55DF5D3EC18F0A5EF0A
:102BEC0015F0440E586E260E596ED3EC18F0A5EF66
:102BFC0015F00DEF00F009500A100B100C100D1011
:102C0C000E100F101010D8B40EEF16F010EF16F0C7
:102C1C0058EF16F0010E116E1EEF16F0D890093613
:102C2C000A360B360C360D360E360F361036112A88
:102C3C0010AE23EF16F025EF16F014EF16F0095036
:102C4C00015C0A5002580B5003580C5004580D509C
:102C5C0005580E5006580F50075810500858D8A059
:102C6C003AEF16F03CEF16F04CEF16F00950015EFF
:102C7C000A50025A0B50035A0C50045A0D50055A64
:102C8C000E50065A0F50075A1050085AD89010324E
:102C9C000F320E320D320C320B320A320932112E37
:102CAC0025EF16F001C501F502C502F503C503F5C4
:102CBC0004C504F505C505F506C506F507C507F5F4
:102CCC0008C508F51200050166A16FEF16F071EF4B
:102CDC0016F07BEF16F015C50CF516C50DF513C5E2
:102CEC000EF514C50FF52CEC18F018BE80EF16F08D
:102CFC0082EF16F088EF16F017C51CF518C51DF5F8
:102D0C008CEF16F0000E1D6E000E1C6E000E1B6E6E
:102D1C00000E1A6E9EEF16F0000E046E200E036E5F
:102D2C0013C505F514C506F528EC17F01A4A1B2A2D
:102D3C001C501A5C1B50800A196E1D50800A1958C1
:102D4C00D8A0ABEF16F0ADEF16F092EF16F0050130
:102D5C0066B1B3EF16F0B5EF16F0BFEF16F015C570
:102D6C000CF516C50DF513C50EF514C50FF52CECA9
:102D7C0018F015C501F516C502F54EEC18F01C50EF
:102D8C000124136E1D500220146E1200000EC26E30
:102D9C00000EC16E000EBE6E000EC36E000EBF6E36
:102DAC00000EC06E070ECA6EFE0ECB6E3F0EC66EC8
:102DBC00C768C868C96804011869EE0E106F086905
:102DCC00070E206FFD0E286FDF0E006F000E196FBF
:102DDC00000E296F000E216F000E096F000E016F9F
:102DEC00000E116F000E0201896F000E886F000E2D
:102DFC00876F000E866F000E0401226F000E2A6F83
:102E0C00000E026F000E0A6F000E126F000E1A6F8A
:102E1C0003690B6913691B69070E236F2B6904691E
:102E2C000C6914691C690F0E246F2C69050E0201C4
:102E3C00616F100E596F140E5A6F200E296F290EE8
:102E4C00726F120005500610D8B42FEF17F031EF47
:102E5C0017F03AEF17F005500610D8A438EF17F01A
:102E6C003AEF17F03FEF17F00350A9EC19F072EF9F
:102E7C0017F020EE04F00550D9260650DA22DE5069
:102E8C00DE10D8B44CEF17F04EEF17F069EF17F0D7
:102E9C0020EE04F00550D9260650DA2210EE02F08E
:102EAC000550E1260650E222DE50E65CE650800A30
:102EBC000B6EDE50800A0B58D8B067EF17F069EF35
:102ECC0017F072EF17F020EE02F00550D9260650DD
:102EDC00DA22DE2A000EDD221200000E0201A56F9E
:102EEC00000EA66F000EA76F000EA86F000EA96F44
:102EFC00000EAA6FA00EAB6F800EAC6F000EAD6F04
:102F0C00220EAE6F000EAF6F000EB06F000EB16FE1
:102F1C00000EB26F000EB36F000E016E000E026E4B
:102F2C00000E036E87EC19F0000E016E000E026E9F
:102F3C00000E036E80EC19F0000E016E000E026E96
:102F4C00000E036E8EEC19F0000E5F6E120052C56F
:102F5C0056F553C557F5000E0501616F000E606FF5
:102F6C00CBEF17F050C53EF551C53FF5560E406EF0
:102F7C00050E416E54C542F555C543F52FEC14F0C2
:102F8C003E50050160273F506123610058F5F6F46F
:102F9C0061005CF5F7F4000EF86E0800F5500009BE
:102FAC00D8A4DBEF17F0DDEF17F0B8EF17F060C522
:102FBC0050F561C551F51200000E0001E86F2E0EA0
:102FCC00F96F030EFA6F000EFB6F000EF16F7D0EA2
:102FDC00F06F000EFD6F000EF86F010EF76F000E14
:102FEC00EF6F010EEE6F1B0EFF6F000EFE6FB09AAF
:102FFC00B098B09EB09CA09AA098A09EA09CC00E29
:10300C00FC6F1200000E0D6E18EF18F008C50AF5D3
:10301C0009C50BF50C6A0A50055E0B50065A0C508C
:10302C00075A0D2A08C50AF509C50BF50C6A0A5092
:10303C00055C0B5006580C500758D8B028EF18F008
:10304C002AEF18F00CEF18F00D501200000E126E53
:10305C00000E116E3DEF18F010C503F5046A0EC595
:10306C0005F50FC506F528EC17F0114A122A115078
:10307C000C24D96E12500D20DA6EDF50106E1050E9
:10308C00D8A44BEF18F04DEF18F032EF18F01200F7
:10309C0001C503F502C504F556EF18F0014A022AE2
:1030AC00610004F4D9F4610008F4DAF4DF50D8A418
:1030BC0062EF18F064EF18F054EF18F00350015C55
:1030CC00016E04500258026E1200B5EC19F0FAECC5
:1030DC0018F0CCEC16F05DEC19F0E7EC18F0E2EC23
:1030EC0017F086EC18F04FEC19F01DEC19F0A3EC6E
:1030FC0019F0BAEC18F073EC17F09CEC19F0120004
:10310C00010E0001D56F000ED76F000ED86F000EA8
:10311C00D96F000EDA6F000EDB6F020EDC6F020E41
:10312C00DD6F020EDE6F020EDF6F000ED46F800EAD
:10313C00D66F1200B196050189518A118B11D8B442
:10314C00AAEF18F0ACEF18F0B9EF18F002D8B9EFFD
:10315C0018F00500FA6E8951FD6E8A51FE6E8B5186
:10316C00FF6EFA5012001200040E0301266F000EBF
:10317C00256F000E276FF10E236F000E226FB19694
:10318C00A1866E0E016E330E026E000E036E95EC70
:10319C0019F0F00E0301246F12005A0E0501976FFF
:1031AC00050E986F000E506E000E516E58C552F5FC
:1031BC0059C553F5970E546E050E556EADEC17F0C0
:1031CC001200010E0401566F140E576F000E526F51
:1031DC00000E516F000E506F000E556F0A0E546F9B
:1031EC00710E536F568F1200000E0001606F000EAF
:1031FC00616F000E636F000E646F000E656F000E42
:10320C00666F000E676F000E686F120001EE60F1C2
:10321C00290EEE6AE806FDE15F6A0401080E5D6F97
:10322C00000E5E6F000E5F6F000192EF15F0800EC6
:10323C0003010C6F4A0E0D6F000E0E6F000E0F6F18
:10324C00070E116F1F0E106F0B690A6909691200C6
:10325C00A1A633EF19F035EF19F03EEF19F0B1A636
:10326C003AEF19F03CEF19F03EEF19F0A0EC18F022
:10327C001100016E550E0001B46FAA0EB46FB4911B
:10328C00610004F4B6F0550EB46FAA0EB46FB4819D
:10329C0012000C0E0301326FA50E316F010E336F4D
:1032AC002F69000E2E6FB996800E306F1200620ED1
:1032BC000001AD6F000EAF6F000EB36F080EB16F53
:1032CC00000EB06F000EAC6F1200016EB2A271EF67
:1032DC0019F073EF19F06CEF19F0610004F4A3F21C
:1032EC00120003010351016E0451026E0551036E6D
:1032FC00046A120001C58FF502C590F503C591F55E
:10330C00120001C592F502C593F503C594F51200A0
:10331C0001C58CF502C58DF503C58EF5120001C5EE
:10332C0089F502C58AF503C58BF51200550E00010F
:10333C00B46FAA0EB46FB4811200A00E00017F6F9F
:10334C00330E7D6F1200026E02506BEC19F01200FE
:10335C00010E0501686F120003010D8F1200D69A41
:04336C001200120039
:020000040020DA
:10000000FF0FFF0FFF0FFF0FFF0FFF0FFF0FFF0F80
:10001000FF0FFF0FFF0FFF0FFF0FFF0FFF0FFF0F70
:020000040030CA
:0A0000008CFDF7FF9FFFFFFFFFFFDD
:00000001FF
